{
    "contractName": "Escrow",
    "abi": [
        {
            "inputs": [],
            "stateMutability": "nonpayable",
            "type": "constructor"
        },
        {
            "anonymous": false,
            "inputs": [
                {
                    "components": [
                        {
                            "internalType": "uint256",
                            "name": "id",
                            "type": "uint256"
                        },
                        {
                            "internalType": "address payable",
                            "name": "buyer",
                            "type": "address"
                        },
                        {
                            "internalType": "address payable",
                            "name": "seller",
                            "type": "address"
                        },
                        {
                            "internalType": "uint256",
                            "name": "amount",
                            "type": "uint256"
                        },
                        {
                            "internalType": "enum Escrow.State",
                            "name": "state",
                            "type": "uint8"
                        }
                    ],
                    "indexed": false,
                    "internalType": "struct Escrow.Order",
                    "name": "order",
                    "type": "tuple"
                }
            ],
            "name": "orderConfirmed",
            "type": "event"
        },
        {
            "anonymous": false,
            "inputs": [
                {
                    "components": [
                        {
                            "internalType": "uint256",
                            "name": "id",
                            "type": "uint256"
                        },
                        {
                            "internalType": "address payable",
                            "name": "buyer",
                            "type": "address"
                        },
                        {
                            "internalType": "address payable",
                            "name": "seller",
                            "type": "address"
                        },
                        {
                            "internalType": "uint256",
                            "name": "amount",
                            "type": "uint256"
                        },
                        {
                            "internalType": "enum Escrow.State",
                            "name": "state",
                            "type": "uint8"
                        }
                    ],
                    "indexed": false,
                    "internalType": "struct Escrow.Order",
                    "name": "order",
                    "type": "tuple"
                }
            ],
            "name": "orderCreated",
            "type": "event"
        },
        {
            "anonymous": false,
            "inputs": [
                {
                    "components": [
                        {
                            "internalType": "uint256",
                            "name": "id",
                            "type": "uint256"
                        },
                        {
                            "internalType": "address payable",
                            "name": "buyer",
                            "type": "address"
                        },
                        {
                            "internalType": "address payable",
                            "name": "seller",
                            "type": "address"
                        },
                        {
                            "internalType": "uint256",
                            "name": "amount",
                            "type": "uint256"
                        },
                        {
                            "internalType": "enum Escrow.State",
                            "name": "state",
                            "type": "uint8"
                        }
                    ],
                    "indexed": false,
                    "internalType": "struct Escrow.Order",
                    "name": "order",
                    "type": "tuple"
                }
            ],
            "name": "orderDeleted",
            "type": "event"
        },
        {
            "anonymous": false,
            "inputs": [
                {
                    "components": [
                        {
                            "internalType": "uint256",
                            "name": "id",
                            "type": "uint256"
                        },
                        {
                            "internalType": "address payable",
                            "name": "buyer",
                            "type": "address"
                        },
                        {
                            "internalType": "address payable",
                            "name": "seller",
                            "type": "address"
                        },
                        {
                            "internalType": "uint256",
                            "name": "amount",
                            "type": "uint256"
                        },
                        {
                            "internalType": "enum Escrow.State",
                            "name": "state",
                            "type": "uint8"
                        }
                    ],
                    "indexed": false,
                    "internalType": "struct Escrow.Order",
                    "name": "order",
                    "type": "tuple"
                }
            ],
            "name": "orderRefunded",
            "type": "event"
        },
        {
            "anonymous": false,
            "inputs": [
                {
                    "components": [
                        {
                            "internalType": "uint256",
                            "name": "id",
                            "type": "uint256"
                        },
                        {
                            "internalType": "address payable",
                            "name": "buyer",
                            "type": "address"
                        },
                        {
                            "internalType": "address payable",
                            "name": "seller",
                            "type": "address"
                        },
                        {
                            "internalType": "uint256",
                            "name": "amount",
                            "type": "uint256"
                        },
                        {
                            "internalType": "enum Escrow.State",
                            "name": "state",
                            "type": "uint8"
                        }
                    ],
                    "indexed": false,
                    "internalType": "struct Escrow.Order",
                    "name": "order",
                    "type": "tuple"
                }
            ],
            "name": "refundAsked",
            "type": "event"
        },
        {
            "anonymous": false,
            "inputs": [
                {
                    "indexed": false,
                    "internalType": "address",
                    "name": "seller",
                    "type": "address"
                }
            ],
            "name": "sellerRegistered",
            "type": "event"
        },
        {
            "inputs": [
                {
                    "internalType": "uint256",
                    "name": "_orderID",
                    "type": "uint256"
                }
            ],
            "name": "askRefund",
            "outputs": [],
            "stateMutability": "nonpayable",
            "type": "function"
        },
        {
            "inputs": [
                {
                    "internalType": "uint256",
                    "name": "_orderID",
                    "type": "uint256"
                }
            ],
            "name": "confirmOrder",
            "outputs": [],
            "stateMutability": "nonpayable",
            "type": "function"
        },
        {
            "inputs": [
                {
                    "internalType": "address payable",
                    "name": "_seller",
                    "type": "address"
                }
            ],
            "name": "createOrder",
            "outputs": [],
            "stateMutability": "payable",
            "type": "function"
        },
        {
            "inputs": [
                {
                    "internalType": "uint256",
                    "name": "_orderID",
                    "type": "uint256"
                }
            ],
            "name": "deleteOrder",
            "outputs": [],
            "stateMutability": "nonpayable",
            "type": "function"
        },
        {
            "inputs": [],
            "name": "getBalance",
            "outputs": [
                {
                    "internalType": "uint256",
                    "name": "",
                    "type": "uint256"
                }
            ],
            "stateMutability": "view",
            "type": "function"
        },
        {
            "inputs": [],
            "name": "getOrders",
            "outputs": [
                {
                    "components": [
                        {
                            "internalType": "uint256",
                            "name": "id",
                            "type": "uint256"
                        },
                        {
                            "internalType": "address payable",
                            "name": "buyer",
                            "type": "address"
                        },
                        {
                            "internalType": "address payable",
                            "name": "seller",
                            "type": "address"
                        },
                        {
                            "internalType": "uint256",
                            "name": "amount",
                            "type": "uint256"
                        },
                        {
                            "internalType": "enum Escrow.State",
                            "name": "state",
                            "type": "uint8"
                        }
                    ],
                    "internalType": "struct Escrow.Order[]",
                    "name": "",
                    "type": "tuple[]"
                }
            ],
            "stateMutability": "view",
            "type": "function"
        },
        {
            "inputs": [
                {
                    "internalType": "address",
                    "name": "_buyer",
                    "type": "address"
                }
            ],
            "name": "getOrdersOfBuyer",
            "outputs": [
                {
                    "components": [
                        {
                            "internalType": "uint256",
                            "name": "id",
                            "type": "uint256"
                        },
                        {
                            "internalType": "address payable",
                            "name": "buyer",
                            "type": "address"
                        },
                        {
                            "internalType": "address payable",
                            "name": "seller",
                            "type": "address"
                        },
                        {
                            "internalType": "uint256",
                            "name": "amount",
                            "type": "uint256"
                        },
                        {
                            "internalType": "enum Escrow.State",
                            "name": "state",
                            "type": "uint8"
                        }
                    ],
                    "internalType": "struct Escrow.Order[]",
                    "name": "",
                    "type": "tuple[]"
                }
            ],
            "stateMutability": "view",
            "type": "function"
        },
        {
            "inputs": [
                {
                    "internalType": "address",
                    "name": "_seller",
                    "type": "address"
                }
            ],
            "name": "getOrdersOfSeller",
            "outputs": [
                {
                    "components": [
                        {
                            "internalType": "uint256",
                            "name": "id",
                            "type": "uint256"
                        },
                        {
                            "internalType": "address payable",
                            "name": "buyer",
                            "type": "address"
                        },
                        {
                            "internalType": "address payable",
                            "name": "seller",
                            "type": "address"
                        },
                        {
                            "internalType": "uint256",
                            "name": "amount",
                            "type": "uint256"
                        },
                        {
                            "internalType": "enum Escrow.State",
                            "name": "state",
                            "type": "uint8"
                        }
                    ],
                    "internalType": "struct Escrow.Order[]",
                    "name": "",
                    "type": "tuple[]"
                }
            ],
            "stateMutability": "view",
            "type": "function"
        },
        {
            "inputs": [],
            "name": "getSellers",
            "outputs": [
                {
                    "internalType": "address[]",
                    "name": "",
                    "type": "address[]"
                }
            ],
            "stateMutability": "view",
            "type": "function"
        },
        {
            "inputs": [],
            "name": "getTotalOrders",
            "outputs": [
                {
                    "internalType": "uint256",
                    "name": "",
                    "type": "uint256"
                }
            ],
            "stateMutability": "view",
            "type": "function"
        },
        {
            "inputs": [],
            "name": "getTotalSellers",
            "outputs": [
                {
                    "internalType": "uint256",
                    "name": "",
                    "type": "uint256"
                }
            ],
            "stateMutability": "view",
            "type": "function"
        },
        {
            "inputs": [],
            "name": "owner",
            "outputs": [
                {
                    "internalType": "address",
                    "name": "",
                    "type": "address"
                }
            ],
            "stateMutability": "view",
            "type": "function"
        },
        {
            "inputs": [
                {
                    "internalType": "uint256",
                    "name": "_orderID",
                    "type": "uint256"
                }
            ],
            "name": "refundBuyer",
            "outputs": [],
            "stateMutability": "payable",
            "type": "function"
        },
        {
            "inputs": [],
            "name": "registerAsSeller",
            "outputs": [],
            "stateMutability": "nonpayable",
            "type": "function"
        }
    ],
    "bytecode": "6080604052600280546001600160a01b0319163017905534801561002257600080fd5b50600380546001600160a01b031916331790556117b5806100446000396000f3fe6080604052600436106100dd5760003560e01c80635cfae7811161007f5780638da5cb5b116100595780638da5cb5b14610208578063d1f95b7914610240578063e47cad7514610260578063ea3774e31461028057600080fd5b80635cfae781146101a65780637ee454cb146101c65780638ac7d79c146101e857600080fd5b8063245cd401116100bb578063245cd401146101475780632e2dc43e1461015c578063375f16a71461017e578063392927631461019357600080fd5b806311a00327146100e257806312065fe014610104578063128b853214610132575b600080fd5b3480156100ee57600080fd5b506101026100fd36600461156e565b610293565b005b34801561011057600080fd5b506002546001600160a01b0316315b6040519081526020015b60405180910390f35b34801561013e57600080fd5b5061010261054b565b34801561015357600080fd5b5061011f610624565b34801561016857600080fd5b50610171610634565b60405161012991906115fb565b34801561018a57600080fd5b5060005461011f565b6101026101a136600461156e565b61077f565b3480156101b257600080fd5b506101716101c1366004611661565b610a63565b3480156101d257600080fd5b506101db610c11565b6040516101299190611685565b3480156101f457600080fd5b5061010261020336600461156e565b610cc6565b34801561021457600080fd5b50600354610228906001600160a01b031681565b6040516001600160a01b039091168152602001610129565b34801561024c57600080fd5b5061017161025b366004611661565b610f52565b34801561026c57600080fd5b5061010261027b36600461156e565b6110f9565b61010261028e366004611661565b611344565b3360009081526006602052604090205460ff166102af57600080fd5b806102b960005490565b8111156102c557600080fd5b60008281526004602052604090206002015482906001600160a01b031633146102ed57600080fd5b6000838152600460208181526040808420815160a0810183528154815260018201546001600160a01b0390811694820194909452600282015490931691830191909152600381015460608301528083015491929091608084019160ff9091169081111561035c5761035c611587565b600481111561036d5761036d611587565b905250905060008160800151600481111561038a5761038a611587565b14806103ab57506003816080015160048111156103a9576103a9611587565b145b6104085760405162461bcd60e51b815260206004820152602360248201527f4552524f523a20596f752063616e27742064656c6574652074686973206f726460448201526232b91760e91b60648201526084015b60405180910390fd5b60608101516002546001600160a01b0316318111156104395760405162461bcd60e51b81526004016103ff906116c6565b81602001516001600160a01b03166108fc829081150290604051600060405180830381858888f19350505050158015610476573d6000803e3d6000fd5b506002608083018181526000878152600460208181526040928390208751815590870151600180830180546001600160a01b03199081166001600160a01b039485161790915594890151968301805490951696909116959095179092556060860151600383015591518183018054879593949293919260ff199091169190849081111561050557610505611587565b02179055509050507f839a7a88322a0081e507b25e6201d049dc248a4ed5b432570878befd5c9bdaf48260405161053c9190611716565b60405180910390a15050505050565b3360009081526006602052604090205460ff16156105ab5760405162461bcd60e51b815260206004820181905260248201527f4552524f523a20596f752061726520616c726561647920612073656c6c65722e60448201526064016103ff565b336000818152600660209081526040808320805460ff1916600190811790915580548452600790925290912080546001600160a01b0319169092179091558054810190556040513381527fca5ecab69076da1444b25ded032af135fd66c125c7686a99242e1e121b1406909060200160405180910390a1565b600061062f60015490565b905090565b6060600061064160005490565b67ffffffffffffffff8111156106595761065961172a565b6040519080825280602002602001820160405280156106b957816020015b6106a66040805160a0810182526000808252602082018190529181018290526060810182905290608082015290565b8152602001906001900390816106775790505b50905060005b60005481101561077957600081815260046020818152604092839020835160a0810185528154815260018201546001600160a01b03908116938201939093526002820154909216938201939093526003830154606082015282820154909291608084019160ff169081111561073657610736611587565b600481111561074757610747611587565b8152505082828151811061075d5761075d611740565b60200260200101819052508061077290611756565b90506106bf565b50919050565b3360009081526006602052604090205460ff1661079b57600080fd5b806107a560005490565b8111156107b157600080fd5b60008281526004602052604090206002015482906001600160a01b031633146107d957600080fd5b6000838152600460208181526040808420815160a0810183528154815260018201546001600160a01b0390811694820194909452600282015490931691830191909152600381015460608301528083015491929091608084019160ff9091169081111561084857610848611587565b600481111561085957610859611587565b905250905060038160800151600481111561087657610876611587565b146108dd5760405162461bcd60e51b815260206004820152603160248201527f4552524f523a20596f752063616e277420706572666f726d206120726566756e60448201527032103337b9103a3434b99037b93232b91760791b60648201526084016103ff565b60608101513481146109675760405162461bcd60e51b815260206004820152604760248201527f4552524f523a2054686520616d6f756e7420796f752077616e74656420746f2060448201527f73656e64206973206e6f7420657175616c20746f20746865206f72646572277360648201526610383934b1b29760c91b608482015260a4016103ff565b60208201516040516001600160a01b03909116903480156108fc02916000818181858888f193505050501580156109a2573d6000803e3d6000fd5b50600460808301818152600087815260208381526040918290208651815590860151600180830180546001600160a01b03199081166001600160a01b039485161790915593880151600284018054909516921691909117909255606086015160038201559151828401805487959293919260ff1990911691908490811115610a2c57610a2c611587565b02179055509050507f49167837b3700769af84a71ed585717cda4002b1147dcda90f6f90e2278b7b178260405161053c9190611716565b6001600160a01b0381166000908152600960205260408120546060919067ffffffffffffffff811115610a9857610a9861172a565b604051908082528060200260200182016040528015610af857816020015b610ae56040805160a0810182526000808252602082018190529181018290526060810182905290608082015290565b815260200190600190039081610ab65790505b50905060005b6001600160a01b038416600090815260096020526040902054811015610c0a576001600160a01b03841660009081526009602052604081208054600492919084908110610b4d57610b4d611740565b600091825260208083209091015483528281019390935260409182019020815160a0810183528154815260018201546001600160a01b039081169482019490945260028201549093169183019190915260038101546060830152600480820154608084019160ff90911690811115610bc757610bc7611587565b6004811115610bd857610bd8611587565b81525050828281518110610bee57610bee611740565b602002602001018190525080610c0390611756565b9050610afe565b5092915050565b60606000610c1e60015490565b67ffffffffffffffff811115610c3657610c3661172a565b604051908082528060200260200182016040528015610c5f578160200160208202803683370190505b50905060005b6001548110156107795760008181526007602052604090205482516001600160a01b0390911690839083908110610c9e57610c9e611740565b6001600160a01b0390921660209283029190910190910152610cbf81611756565b9050610c65565b3360009081526005602052604090205460ff16610ce257600080fd5b80610cec60005490565b811115610cf857600080fd5b60008281526004602052604090206001015482906001600160a01b03163314610d2057600080fd5b6000838152600460208181526040808420815160a0810183528154815260018201546001600160a01b0390811694820194909452600282015490931691830191909152600381015460608301528083015491929091608084019160ff90911690811115610d8f57610d8f611587565b6004811115610da057610da0611587565b9052509050600081608001516004811115610dbd57610dbd611587565b14610e165760405162461bcd60e51b8152602060048201526024808201527f4552524f523a20596f752063616e277420636f6e6669726d2074686973206f726044820152633232b91760e11b60648201526084016103ff565b60608101516002546001600160a01b031631811115610e475760405162461bcd60e51b81526004016103ff906116c6565b60408083015190516001600160a01b0382169083156108fc029084906000818181858888f19350505050158015610e82573d6000803e3d6000fd5b50600160808401818152600088815260046020818152604092839020885181559088015181860180546001600160a01b03199081166001600160a01b0393841617909155938901516002830180549095169116179092556060870151600383015591518183018054889593949293919260ff1990911691908490811115610f0b57610f0b611587565b02179055509050507fca8a3ec12e36c28d376d2e6e727bff8209343ed60f18a9ec43f36a6b5f96ad4b83604051610f429190611716565b60405180910390a1505050505050565b6001600160a01b0381166000908152600860205260408120546060919067ffffffffffffffff811115610f8757610f8761172a565b604051908082528060200260200182016040528015610fe757816020015b610fd46040805160a0810182526000808252602082018190529181018290526060810182905290608082015290565b815260200190600190039081610fa55790505b50905060005b6001600160a01b038416600090815260086020526040902054811015610c0a576001600160a01b0384166000908152600860205260408120805460049291908490811061103c5761103c611740565b600091825260208083209091015483528281019390935260409182019020815160a0810183528154815260018201546001600160a01b039081169482019490945260028201549093169183019190915260038101546060830152600480820154608084019160ff909116908111156110b6576110b6611587565b60048111156110c7576110c7611587565b815250508282815181106110dd576110dd611740565b6020026020010181905250806110f290611756565b9050610fed565b3360009081526005602052604090205460ff1661111557600080fd5b8061111f60005490565b81111561112b57600080fd5b60008281526004602052604090206001015482906001600160a01b0316331461115357600080fd5b6000838152600460208181526040808420815160a0810183528154815260018201546001600160a01b0390811694820194909452600282015490931691830191909152600381015460608301528083015491929091608084019160ff909116908111156111c2576111c2611587565b60048111156111d3576111d3611587565b90525090506000816080015160048111156111f0576111f0611587565b1480611211575060018160800151600481111561120f5761120f611587565b145b6112715760405162461bcd60e51b815260206004820152602b60248201527f4552524f523a20596f752063616e27742061736b20726566756e6420666f722060448201526a3a3434b99037b93232b91760a91b60648201526084016103ff565b6003608082018181526000868152600460208181526040928390208651815590860151600180830180546001600160a01b03199081166001600160a01b039485161790915594880151600284018054909616921691909117909355606086015194810194909455915183830180548695949293919260ff19909116919084908111156112ff576112ff611587565b02179055509050507f2e44ab1a5efe488b5938b76f2210ea54da91b34c438b66c64c983627db40006d816040516113369190611716565b60405180910390a150505050565b6001600160a01b03811660009081526006602052604090205460ff166113c95760405162461bcd60e51b815260206004820152603460248201527f4552524f523a20546869732073656c6c65722069736e277420726567697374656044820152733932b21034b71037bab910383630ba3337b9369760611b60648201526084016103ff565b33600081815260056020526040902054349060ff16611406576001600160a01b0382166000908152600560205260409020805460ff191660011790555b60008054905060006040518060a00160405280838152602001856001600160a01b03168152602001866001600160a01b031681526020018481526020016000600481111561145657611456611587565b90526000838152600460208181526040928390208451815590840151600180830180546001600160a01b039384166001600160a01b031991821617909155948601516002840180549190931695169490941790556060840151600382015560808401518183018054959650869592949193909260ff1916919084908111156114e0576114e0611587565b021790555050506001600160a01b038085166000908152600860209081526040808320805460018181018355918552838520018790559389168352600982528220805493840181558252812090910183905561153f9080546001019055565b7f27b93a0e3b929c90b72a07f1497499ddc2ab97ecf645a259a7b741d0fd0d6d4c8160405161053c9190611716565b60006020828403121561158057600080fd5b5035919050565b634e487b7160e01b600052602160045260246000fd5b80518252602081015160018060a01b0380821660208501528060408401511660408501525050606081015160608301526080810151600581106115f057634e487b7160e01b600052602160045260246000fd5b806080840152505050565b6020808252825182820181905260009190848201906040850190845b8181101561163d5761162a83855161159d565b9284019260a09290920191600101611617565b50909695505050505050565b6001600160a01b038116811461165e57600080fd5b50565b60006020828403121561167357600080fd5b813561167e81611649565b9392505050565b6020808252825182820181905260009190848201906040850190845b8181101561163d5783516001600160a01b0316835292840192918401916001016116a1565b60208082526030908201527f4552524f523a20496e73756666696369656e742066756e647320696e7369646560408201526f1039b6b0b93a1031b7b73a3930b1ba1760811b606082015260800190565b60a08101611724828461159d565b92915050565b634e487b7160e01b600052604160045260246000fd5b634e487b7160e01b600052603260045260246000fd5b600060001982141561177857634e487b7160e01b600052601160045260246000fd5b506001019056fea26469706673582212200d72a6f09d0c674a7951ecda559217699328be722090fdc40838dd0f020e6f5064736f6c634300080b0033",
    "sourcePath": "/home/matteo/Desktop/GitHub/webAppOberon/reactapp/src/contracts/Escrow.sol",
    "compiler": {
        "name": "solc",
        "version": "0.8.11+commit.d7f03943"
    },
    "functionHashes": {
        "askRefund(uint256)": "e47cad75",
        "confirmOrder(uint256)": "8ac7d79c",
        "createOrder(address)": "ea3774e3",
        "deleteOrder(uint256)": "11a00327",
        "getBalance()": "12065fe0",
        "getOrders()": "2e2dc43e",
        "getOrdersOfBuyer(address)": "d1f95b79",
        "getOrdersOfSeller(address)": "5cfae781",
        "getSellers()": "7ee454cb",
        "getTotalOrders()": "375f16a7",
        "getTotalSellers()": "245cd401",
        "owner()": "8da5cb5b",
        "refundBuyer(uint256)": "39292763",
        "registerAsSeller()": "128b8532"
    },
    "gasEstimates": {
        "creation": {
            "codeDepositCost": "1213800",
            "executionCost": "49731",
            "totalCost": "1263531"
        },
        "external": {
            "askRefund(uint256)": "137341",
            "confirmOrder(uint256)": "infinite",
            "createOrder(address)": "268025",
            "deleteOrder(uint256)": "infinite",
            "getBalance()": "4934",
            "getOrders()": "infinite",
            "getOrdersOfBuyer(address)": "infinite",
            "getOrdersOfSeller(address)": "infinite",
            "getSellers()": "infinite",
            "getTotalOrders()": "2348",
            "getTotalSellers()": "2342",
            "owner()": "2359",
            "refundBuyer(uint256)": "infinite",
            "registerAsSeller()": "78392"
        }
    }
}