{
  "_format": "hh-sol-artifact-1",
  "contractName": "Escrow",
  "sourceName": "contracts/Escrow.sol",
  "abi": [
    {
      "inputs": [],
      "stateMutability": "nonpayable",
      "type": "constructor"
    },
    {
      "anonymous": false,
      "inputs": [
        {
          "components": [
            {
              "internalType": "uint256",
              "name": "id",
              "type": "uint256"
            },
            {
              "internalType": "address payable",
              "name": "buyer",
              "type": "address"
            },
            {
              "internalType": "address payable",
              "name": "seller",
              "type": "address"
            },
            {
              "internalType": "uint256",
              "name": "amount",
              "type": "uint256"
            },
            {
              "internalType": "enum Escrow.State",
              "name": "state",
              "type": "uint8"
            }
          ],
          "indexed": false,
          "internalType": "struct Escrow.Order",
          "name": "order",
          "type": "tuple"
        }
      ],
      "name": "orderConfirmed",
      "type": "event"
    },
    {
      "anonymous": false,
      "inputs": [
        {
          "components": [
            {
              "internalType": "uint256",
              "name": "id",
              "type": "uint256"
            },
            {
              "internalType": "address payable",
              "name": "buyer",
              "type": "address"
            },
            {
              "internalType": "address payable",
              "name": "seller",
              "type": "address"
            },
            {
              "internalType": "uint256",
              "name": "amount",
              "type": "uint256"
            },
            {
              "internalType": "enum Escrow.State",
              "name": "state",
              "type": "uint8"
            }
          ],
          "indexed": false,
          "internalType": "struct Escrow.Order",
          "name": "order",
          "type": "tuple"
        }
      ],
      "name": "orderCreated",
      "type": "event"
    },
    {
      "anonymous": false,
      "inputs": [
        {
          "components": [
            {
              "internalType": "uint256",
              "name": "id",
              "type": "uint256"
            },
            {
              "internalType": "address payable",
              "name": "buyer",
              "type": "address"
            },
            {
              "internalType": "address payable",
              "name": "seller",
              "type": "address"
            },
            {
              "internalType": "uint256",
              "name": "amount",
              "type": "uint256"
            },
            {
              "internalType": "enum Escrow.State",
              "name": "state",
              "type": "uint8"
            }
          ],
          "indexed": false,
          "internalType": "struct Escrow.Order",
          "name": "order",
          "type": "tuple"
        }
      ],
      "name": "orderDeleted",
      "type": "event"
    },
    {
      "anonymous": false,
      "inputs": [
        {
          "components": [
            {
              "internalType": "uint256",
              "name": "id",
              "type": "uint256"
            },
            {
              "internalType": "address payable",
              "name": "buyer",
              "type": "address"
            },
            {
              "internalType": "address payable",
              "name": "seller",
              "type": "address"
            },
            {
              "internalType": "uint256",
              "name": "amount",
              "type": "uint256"
            },
            {
              "internalType": "enum Escrow.State",
              "name": "state",
              "type": "uint8"
            }
          ],
          "indexed": false,
          "internalType": "struct Escrow.Order",
          "name": "order",
          "type": "tuple"
        }
      ],
      "name": "orderRefunded",
      "type": "event"
    },
    {
      "anonymous": false,
      "inputs": [
        {
          "components": [
            {
              "internalType": "uint256",
              "name": "id",
              "type": "uint256"
            },
            {
              "internalType": "address payable",
              "name": "buyer",
              "type": "address"
            },
            {
              "internalType": "address payable",
              "name": "seller",
              "type": "address"
            },
            {
              "internalType": "uint256",
              "name": "amount",
              "type": "uint256"
            },
            {
              "internalType": "enum Escrow.State",
              "name": "state",
              "type": "uint8"
            }
          ],
          "indexed": false,
          "internalType": "struct Escrow.Order",
          "name": "order",
          "type": "tuple"
        }
      ],
      "name": "refundAsked",
      "type": "event"
    },
    {
      "anonymous": false,
      "inputs": [
        {
          "indexed": false,
          "internalType": "address",
          "name": "seller",
          "type": "address"
        }
      ],
      "name": "sellerRegistered",
      "type": "event"
    },
    {
      "inputs": [
        {
          "internalType": "uint256",
          "name": "_orderID",
          "type": "uint256"
        }
      ],
      "name": "askRefund",
      "outputs": [],
      "stateMutability": "nonpayable",
      "type": "function"
    },
    {
      "inputs": [
        {
          "internalType": "uint256",
          "name": "_orderID",
          "type": "uint256"
        }
      ],
      "name": "confirmOrder",
      "outputs": [],
      "stateMutability": "nonpayable",
      "type": "function"
    },
    {
      "inputs": [
        {
          "internalType": "address payable",
          "name": "_seller",
          "type": "address"
        }
      ],
      "name": "createOrder",
      "outputs": [],
      "stateMutability": "payable",
      "type": "function"
    },
    {
      "inputs": [
        {
          "internalType": "uint256",
          "name": "_orderID",
          "type": "uint256"
        }
      ],
      "name": "deleteOrder",
      "outputs": [],
      "stateMutability": "nonpayable",
      "type": "function"
    },
    {
      "inputs": [],
      "name": "getBalance",
      "outputs": [
        {
          "internalType": "uint256",
          "name": "",
          "type": "uint256"
        }
      ],
      "stateMutability": "view",
      "type": "function"
    },
    {
      "inputs": [],
      "name": "getOrders",
      "outputs": [
        {
          "components": [
            {
              "internalType": "uint256",
              "name": "id",
              "type": "uint256"
            },
            {
              "internalType": "address payable",
              "name": "buyer",
              "type": "address"
            },
            {
              "internalType": "address payable",
              "name": "seller",
              "type": "address"
            },
            {
              "internalType": "uint256",
              "name": "amount",
              "type": "uint256"
            },
            {
              "internalType": "enum Escrow.State",
              "name": "state",
              "type": "uint8"
            }
          ],
          "internalType": "struct Escrow.Order[]",
          "name": "",
          "type": "tuple[]"
        }
      ],
      "stateMutability": "view",
      "type": "function"
    },
    {
      "inputs": [
        {
          "internalType": "address",
          "name": "_user",
          "type": "address"
        }
      ],
      "name": "getOrdersOfUser",
      "outputs": [
        {
          "components": [
            {
              "internalType": "uint256",
              "name": "id",
              "type": "uint256"
            },
            {
              "internalType": "address payable",
              "name": "buyer",
              "type": "address"
            },
            {
              "internalType": "address payable",
              "name": "seller",
              "type": "address"
            },
            {
              "internalType": "uint256",
              "name": "amount",
              "type": "uint256"
            },
            {
              "internalType": "enum Escrow.State",
              "name": "state",
              "type": "uint8"
            }
          ],
          "internalType": "struct Escrow.Order[]",
          "name": "",
          "type": "tuple[]"
        }
      ],
      "stateMutability": "view",
      "type": "function"
    },
    {
      "inputs": [],
      "name": "getSellers",
      "outputs": [
        {
          "internalType": "address[]",
          "name": "",
          "type": "address[]"
        }
      ],
      "stateMutability": "view",
      "type": "function"
    },
    {
      "inputs": [],
      "name": "getTotalOrders",
      "outputs": [
        {
          "internalType": "uint256",
          "name": "",
          "type": "uint256"
        }
      ],
      "stateMutability": "view",
      "type": "function"
    },
    {
      "inputs": [],
      "name": "getTotalSellers",
      "outputs": [
        {
          "internalType": "uint256",
          "name": "",
          "type": "uint256"
        }
      ],
      "stateMutability": "view",
      "type": "function"
    },
    {
      "inputs": [],
      "name": "owner",
      "outputs": [
        {
          "internalType": "address",
          "name": "",
          "type": "address"
        }
      ],
      "stateMutability": "view",
      "type": "function"
    },
    {
      "inputs": [
        {
          "internalType": "uint256",
          "name": "_orderID",
          "type": "uint256"
        }
      ],
      "name": "refundBuyer",
      "outputs": [],
      "stateMutability": "payable",
      "type": "function"
    },
    {
      "inputs": [],
      "name": "registerAsSeller",
      "outputs": [],
      "stateMutability": "nonpayable",
      "type": "function"
    }
  ],
  "bytecode": "0x6080604052306000806101000a81548173ffffffffffffffffffffffffffffffffffffffff021916908373ffffffffffffffffffffffffffffffffffffffff1602179055503480156200005157600080fd5b50620000867fdad9dceb63897aba884c2c979f555afc0be2ddbacd84896d42a545d637d12efe60001b6200013560201b60201c565b620000ba7f976a5b32e07a2f12c3e5b30cbfc463711ed9d9ddbe1bbf64ccb63c3c27f6781360001b6200013560201b60201c565b620000ee7f64187bef791e8382ce66435e7e8143347273ccf441a6e29c561314846877f9ff60001b6200013560201b60201c565b33600160006101000a81548173ffffffffffffffffffffffffffffffffffffffff021916908373ffffffffffffffffffffffffffffffffffffffff16021790555062000138565b50565b61610a80620001486000396000f3fe6080604052600436106100c25760003560e01c8063375f16a71161007f5780638ac7d79c116100595780638ac7d79c146102375780638da5cb5b14610260578063e47cad751461028b578063ea3774e3146102b4576100c2565b8063375f16a7146101c557806339292763146101f05780637ee454cb1461020c576100c2565b80630d4b18e8146100c757806311a003271461010457806312065fe01461012d578063128b853214610158578063245cd4011461016f5780632e2dc43e1461019a575b600080fd5b3480156100d357600080fd5b506100ee60048036038101906100e99190615702565b6102d0565b6040516100fb9190615d66565b60405180910390f35b34801561011057600080fd5b5061012b60048036038101906101269190615754565b610ef9565b005b34801561013957600080fd5b50610142611a17565b60405161014f9190615ec3565b60405180910390f35b34801561016457600080fd5b5061016d611ada565b005b34801561017b57600080fd5b50610184611e99565b6040516101919190615ec3565b60405180910390f35b3480156101a657600080fd5b506101af611f2e565b6040516101bc9190615d66565b60405180910390f35b3480156101d157600080fd5b506101da612319565b6040516101e79190615ec3565b60405180910390f35b61020a60048036038101906102059190615754565b6123ae565b005b34801561021857600080fd5b50610221612fbe565b60405161022e9190615d44565b60405180910390f35b34801561024357600080fd5b5061025e60048036038101906102599190615754565b61329c565b005b34801561026c57600080fd5b50610275613e18565b6040516102829190615d29565b60405180910390f35b34801561029757600080fd5b506102b260048036038101906102ad9190615754565b613e3e565b005b6102ce60048036038101906102c9919061572b565b614c14565b005b60606102fe7fc18e49b571273dd4a6f8239f8a7ec7cc0c52761cfead2e45a13554f9bf13c22d60001b615609565b61032a7f0b09b1f20cebc63cfe9e5ca35a778698f6ce0031b5a97b3682a0526933eb913960001b615609565b6103567f56123aadba48f01b16215d263b28ead7409a02edeaa1b6a76acec3f56d6d74af60001b615609565b60606103847f2c67996632856991719470884c7d13c95a0445c68c436a8feeec0ea6e46283df60001b615609565b6103b07f68333c778f6f82e9656729244ef4c2f1e60bd85bc22eecfb91019e2570c457c960001b615609565b600560008473ffffffffffffffffffffffffffffffffffffffff1673ffffffffffffffffffffffffffffffffffffffff16815260200190815260200160002060009054906101000a900460ff16156108825761042e7f5c3cb6c7cea7d1b8024e82e1bb7de5d17e424e2f06942df020f52d8facecdc3260001b615609565b61045a7f20b9a4f6f30029d601dfb89c33d4e5762e6c77e18a5eb9753324d472527bcadb60001b615609565b6104867fd9245aabebb3a62b32a055b9a09c1a1dbad7be769f146c5448f388d1c76812c560001b615609565b600860008473ffffffffffffffffffffffffffffffffffffffff1673ffffffffffffffffffffffffffffffffffffffff1681526020019081526020016000208054905067ffffffffffffffff811115610508577f4e487b7100000000000000000000000000000000000000000000000000000000600052604160045260246000fd5b60405190808252806020026020018201604052801561054157816020015b61052e615630565b8152602001906001900390816105265790505b5090506105707f01a60b1390c34d8414b74d8ef0aac48ff038e689247c90b04582be3d311e150f60001b615609565b61059c7f19adde2b483f8117408537846a5879626787bdb2bb91849cfe1efe7ec1cf945660001b615609565b60005b600860008573ffffffffffffffffffffffffffffffffffffffff1673ffffffffffffffffffffffffffffffffffffffff1681526020019081526020016000208054905081101561087c576106157f2ecf11607c02873b35799242137623fa1c409d1cd8f5652a73ebde705e7355f360001b615609565b6106417f1ba80547a5f1534e98748bb67a1f49258158acdefe8935262a3e05d7b47e523360001b615609565b60046000600860008773ffffffffffffffffffffffffffffffffffffffff1673ffffffffffffffffffffffffffffffffffffffff16815260200190815260200160002083815481106106bc577f4e487b7100000000000000000000000000000000000000000000000000000000600052603260045260246000fd5b906000526020600020015481526020019081526020016000206040518060a0016040529081600082015481526020016001820160009054906101000a900473ffffffffffffffffffffffffffffffffffffffff1673ffffffffffffffffffffffffffffffffffffffff1673ffffffffffffffffffffffffffffffffffffffff1681526020016002820160009054906101000a900473ffffffffffffffffffffffffffffffffffffffff1673ffffffffffffffffffffffffffffffffffffffff1673ffffffffffffffffffffffffffffffffffffffff168152602001600382015481526020016004820160009054906101000a900460ff1660048111156107eb577f4e487b7100000000000000000000000000000000000000000000000000000000600052602160045260246000fd5b6004811115610823577f4e487b7100000000000000000000000000000000000000000000000000000000600052602160045260246000fd5b81525050828281518110610860577f4e487b7100000000000000000000000000000000000000000000000000000000600052603260045260246000fd5b60200260200101819052508061087590615fd4565b905061059f565b50610e98565b6108ae7f4e04f2325798befebf80df4ed7e7a2b04855c94f862387d921418bfc04a1e38e60001b615609565b6108da7f9125a05f5024f83c529124f06fad1f7104575dd33c6c39fad0b3a3a98c5ba30360001b615609565b6109067fc8051b21d6c20b16383af676a8f9025603f7db3f1b917d93bbb105b3495710d060001b615609565b600660008473ffffffffffffffffffffffffffffffffffffffff1673ffffffffffffffffffffffffffffffffffffffff16815260200190815260200160002060009054906101000a900460ff1615610dd8576109847fc5221a3e17d58a2c9db524657beb1caecf56c050266c23e1d4280353a582c1bf60001b615609565b6109b07f61a93dd44b73c6e0604624b42c85b84b912a1cecf03afb15cb7b40f9f9ae023160001b615609565b6109dc7f6c0ce68f3c79188df83c985dbf1cc20af99667396350d856a8e7cc4039019ad860001b615609565b600960008473ffffffffffffffffffffffffffffffffffffffff1673ffffffffffffffffffffffffffffffffffffffff1681526020019081526020016000208054905067ffffffffffffffff811115610a5e577f4e487b7100000000000000000000000000000000000000000000000000000000600052604160045260246000fd5b604051908082528060200260200182016040528015610a9757816020015b610a84615630565b815260200190600190039081610a7c5790505b509050610ac67f0cebd652a4fd16305371722695993e4bb0e15e7af85205e7bc1b61b6305aa01460001b615609565b610af27f97d1634d697af2e6ce21c59dc1a9411003795a31bcb992337f5b85039e0a583560001b615609565b60005b600960008573ffffffffffffffffffffffffffffffffffffffff1673ffffffffffffffffffffffffffffffffffffffff16815260200190815260200160002080549050811015610dd257610b6b7fb1b6414c6a8ff7c64e0cd86301c4c6079659b1b39c461a768e9f63b96a828c0360001b615609565b610b977f94a1d542e75c21fe31b2af0a791d318197b0d48717aed847e1ddaa9d136d06ef60001b615609565b60046000600960008773ffffffffffffffffffffffffffffffffffffffff1673ffffffffffffffffffffffffffffffffffffffff1681526020019081526020016000208381548110610c12577f4e487b7100000000000000000000000000000000000000000000000000000000600052603260045260246000fd5b906000526020600020015481526020019081526020016000206040518060a0016040529081600082015481526020016001820160009054906101000a900473ffffffffffffffffffffffffffffffffffffffff1673ffffffffffffffffffffffffffffffffffffffff1673ffffffffffffffffffffffffffffffffffffffff1681526020016002820160009054906101000a900473ffffffffffffffffffffffffffffffffffffffff1673ffffffffffffffffffffffffffffffffffffffff1673ffffffffffffffffffffffffffffffffffffffff168152602001600382015481526020016004820160009054906101000a900460ff166004811115610d41577f4e487b7100000000000000000000000000000000000000000000000000000000600052602160045260246000fd5b6004811115610d79577f4e487b7100000000000000000000000000000000000000000000000000000000600052602160045260246000fd5b81525050828281518110610db6577f4e487b7100000000000000000000000000000000000000000000000000000000600052603260045260246000fd5b602002602001018190525080610dcb90615fd4565b9050610af5565b50610e97565b610e047f7294d9f9c3a97a89c7e4caa7b99309b53e42c174e49d28bf402990699905f2d260001b615609565b610e307faca4cbd4121a9b95d2ea6779f88e506800565efd56e3b581d369ab79b1f400ec60001b615609565b610e5c7f81c170af59519a85a0f4765330672e3ddda9e458f121b5b3d0c3396c63a590a760001b615609565b6040517f08c379a0000000000000000000000000000000000000000000000000000000008152600401610e8e90615e08565b60405180910390fd5b5b610ec47fa0007d8b8855f03352749cfa7fc8338d6b32e60e221bf66162aabe5d868b12a160001b615609565b610ef07fee882732aa98a3a2501e815c71d2a4a93b23cdc778647ac7720ba136a5d5d28760001b615609565b80915050919050565b610f257f4832ba9708c5a705e03106fc943abb4360ec725bb1458e59540c48c13cf0dc1b60001b615609565b610f517f3a164677244b737e1893f563382f70b410d0feb610c33b73b29cd685a26aa07660001b615609565b610f7d7f96d1c816ea2cbc85f3eb4e84e6b2399240525b3641fd3f9b2f250f57be4b010f60001b615609565b610fa97f376d3fd7069714c90f576223b50e3bb86dba81427af0e3e62d1576bc8f8976f760001b615609565b600660003373ffffffffffffffffffffffffffffffffffffffff1673ffffffffffffffffffffffffffffffffffffffff16815260200190815260200160002060009054906101000a900460ff16610fff57600080fd5b61102b7fe81d9ac96dbdcb79d093fa10ccdf87d658311846f3bfe8413c83bf6ce81e5d2c60001b615609565b6110577f641f448dc16c61797d6b9886868916c2bfa3626687c8a5c561ce48af9c6dd61d60001b615609565b806110847f58b613a87ae841e7c9c4b856eed337aa4478e8712faa1374989f8203d2465b5160001b615609565b6110b07f1052f8a1825e0c5fa16c4c69f3d37fb7b775e9f4e3ec9784cfddb9a3b961d23a60001b615609565b6110dc7fa7f43a13f57c02b39125340d885f92e49e41b0bcecc58fbfcb21d92643e6155160001b615609565b6111087f56beade06a002f65122b43f7933f5e84952810d104843f9026782175df347e4360001b615609565b611112600361560c565b81111561111e57600080fd5b61114a7f99bfae91cd95a45535906786e4cb6927c88d21e45174c177097c1a3436b4cb1260001b615609565b6111767f58afa510a0e14201b5aecea08da5929405f123a6f00cb8aa8c4e4ae13d61d09160001b615609565b816111a37f5b1490c6144440f2755b4f4f9c3cec399bd069f850dd265dba6b6e4d210fd7c860001b615609565b6111cf7f2b67407745a5d9aa0f9e3684ee315d274ff6f34665b641fef5cd2d3c286234b260001b615609565b6111fb7f704c328c4fb09abba4bd7ce97553d25bbcd93bb0d5e5ef1bd45be3482a5e61f160001b615609565b6112277fe92aa6f8688a3aefd3f7065e3286dd27858b1a0248271cce3b44197cc31d0dea60001b615609565b3373ffffffffffffffffffffffffffffffffffffffff166004600083815260200190815260200160002060020160009054906101000a900473ffffffffffffffffffffffffffffffffffffffff1673ffffffffffffffffffffffffffffffffffffffff161461129557600080fd5b6112c17fbc428615df806895e4bb550611d6ebff79401c7bd1726c8fe813795765ac8d4360001b615609565b6112ed7f6c16f8d7190425255746c59c545b05e3a42c961b2f051215cde5df86d5d11b3060001b615609565b6113197f4c0a2894778d4e4d95d4456da22d2efa486679ed0849fa5fcba9b146827e732b60001b615609565b6113457fa3362dd0974e0151891370714c656cfd30d4cf10f13a2fe988e47405b191039f60001b615609565b6113717f1335c046b4a72892bad66bbd7950d15638409e78d271ab8bd7488bcdc4af29d660001b615609565b6000600460008581526020019081526020016000206040518060a0016040529081600082015481526020016001820160009054906101000a900473ffffffffffffffffffffffffffffffffffffffff1673ffffffffffffffffffffffffffffffffffffffff1673ffffffffffffffffffffffffffffffffffffffff1681526020016002820160009054906101000a900473ffffffffffffffffffffffffffffffffffffffff1673ffffffffffffffffffffffffffffffffffffffff1673ffffffffffffffffffffffffffffffffffffffff168152602001600382015481526020016004820160009054906101000a900460ff16600481111561149c577f4e487b7100000000000000000000000000000000000000000000000000000000600052602160045260246000fd5b60048111156114d4577f4e487b7100000000000000000000000000000000000000000000000000000000600052602160045260246000fd5b8152505090506115067ff35a1e4c08cac8aa47033819d9b723a6353256371d8692ab1e594a5c085f37e860001b615609565b6115327f155e0cf2a27a9898dbafb489c18631ea1373e481342ee2d2d581c6a25d0a7ac560001b615609565b61155e7f1a6162d828c0e614136b83c78e7d59d8f0d3ef2b39b801ddb9ad95101a8c718860001b615609565b60006004811115611598577f4e487b7100000000000000000000000000000000000000000000000000000000600052602160045260246000fd5b816080015160048111156115d5577f4e487b7100000000000000000000000000000000000000000000000000000000600052602160045260246000fd5b14611615576040517f08c379a000000000000000000000000000000000000000000000000000000000815260040161160c90615dc8565b60405180910390fd5b6116417f71f0de8d7406df977f87911f0d75a4ba4749f80bc10da7bbf72a9f3fe78215c160001b615609565b61166d7f180f8445c6ac89fa845222c454d69e9bf77fd011361ff0e1425254e6560dc67060001b615609565b6116997f6e8f295b6e17b1414943ddf888db3e898d54b93b6a9bfcadca18dfa09f49137f60001b615609565b6000816060015190506116ce7f2da12abf1a3c50f0946f7540a97741069a800810bfb2a35d16a1e2bc3222276a60001b615609565b6116fa7f0dc0ec888d3e71e37f7246ad1c970b337ab1dc74cd46aeb25b39730d98f4d7c560001b615609565b600282608001906004811115611739577f4e487b7100000000000000000000000000000000000000000000000000000000600052602160045260246000fd5b90816004811115611773577f4e487b7100000000000000000000000000000000000000000000000000000000600052602160045260246000fd5b815250506117a37ff13772ed58d4ff1ade734f510d00bd7536c745379af7b24be70d43e7fb34bab160001b615609565b6117cf7f3ddb8e4d7dcf58d58157a3fabedec562fe3ca4444f7ca0340188a77d8292df0a60001b615609565b816020015173ffffffffffffffffffffffffffffffffffffffff166108fc829081150290604051600060405180830381858888f19350505050158015611819573d6000803e3d6000fd5b506118467fafb21a8446408dfc5bf1f8f638d091def52e7bd5ef10baa3ca9028c4b17aefac60001b615609565b6118727fed85ea79db47149b0e8da06561c88c532d40c5e32f48a42bb81689765ed8cb9b60001b615609565b81600460008781526020019081526020016000206000820151816000015560208201518160010160006101000a81548173ffffffffffffffffffffffffffffffffffffffff021916908373ffffffffffffffffffffffffffffffffffffffff16021790555060408201518160020160006101000a81548173ffffffffffffffffffffffffffffffffffffffff021916908373ffffffffffffffffffffffffffffffffffffffff1602179055506060820151816003015560808201518160040160006101000a81548160ff02191690836004811115611979577f4e487b7100000000000000000000000000000000000000000000000000000000600052602160045260246000fd5b02179055509050506119ad7fc02becd7144137c99146945cb8ab0679b5f3f801787b5f259bb86825c2697d0d60001b615609565b6119d97fb30f27b12d6035e919ae46d196519de43873acad57f8dc21462a0e4779cd37e360001b615609565b7f839a7a88322a0081e507b25e6201d049dc248a4ed5b432570878befd5c9bdaf482604051611a089190615ea8565b60405180910390a15050505050565b6000611a457feeb741bbae426b624435f49250f3bb070521e8ea743d8650971f0730cd9db17760001b615609565b611a717fd3d56132fbca6309c5f0bdcb1a5998b1176a07627e7fbffd925cda117160fca160001b615609565b611a9d7fe62b7191c37147467e43104590848c1f1591ff6f91b089481f23afe5a3f736fb60001b615609565b60008054906101000a900473ffffffffffffffffffffffffffffffffffffffff1673ffffffffffffffffffffffffffffffffffffffff1631905090565b611b067fbe84ec67e1de8e1a4388bfef6f16fc065ac1062c88692e081ce737c47a22173360001b615609565b611b327f5257020c2c25d0934f9b0af182e51faf36e2f5a45dedcec9fffe006f358b0d1b60001b615609565b611b5e7fe5f26e2a655a006a3fa619febc18cf8dc1b6951381615a590594ede92e2e0e6360001b615609565b611b8a7ff0e7a0380f01999f623a168c51400216a7c0cb2917158767ddc71939edfcb00160001b615609565b600660003373ffffffffffffffffffffffffffffffffffffffff1673ffffffffffffffffffffffffffffffffffffffff16815260200190815260200160002060009054906101000a900460ff1615611c17576040517f08c379a0000000000000000000000000000000000000000000000000000000008152600401611c0e90615da8565b60405180910390fd5b611c437fa3e44ca70b545fa452a7905325f680f3c574123c8380ceb99769179499e124a260001b615609565b611c6f7f962e750579981a907b5279370f62462962ef24685f17f44b90e7ee7bf0773cef60001b615609565b611c9b7fda1ec7b748f267384a101403587c3ee5f339f04f54e5d23182003b64cfcbed7160001b615609565b6001600660003373ffffffffffffffffffffffffffffffffffffffff1673ffffffffffffffffffffffffffffffffffffffff16815260200190815260200160002060006101000a81548160ff021916908315150217905550611d1f7ffc33860b7a7bcb006a85e6a13ac0259eba79a559da104a9981611e346338919e60001b615609565b611d4b7f57cfb9ba8ad5dad3050f3d776004345337d68512fe777d85f8dfdaea2783466360001b615609565b3360076000611d5a600261560c565b815260200190815260200160002060006101000a81548173ffffffffffffffffffffffffffffffffffffffff021916908373ffffffffffffffffffffffffffffffffffffffff160217905550611dd27f8f615b3aed869d12c656a40645ed0f8f7d947c96438533b896155eb3488150a460001b615609565b611dfe7f073fb9975a1d2f74f5e32ee73e0a332e32afb99922656cf9bf97d24c06f923b760001b615609565b611e08600261561a565b611e347fdaaa8b7fb659f1b57822589027824cd195d6a6784eb3cd7ea019e1df732e544660001b615609565b611e607fd65739779ed7735f243e15970372cb24c697b8a7aa90e7d93e2338a2e1e7745060001b615609565b7fca5ecab69076da1444b25ded032af135fd66c125c7686a99242e1e121b14069033604051611e8f9190615d29565b60405180910390a1565b6000611ec77f0a1cff0f65e57d688174c2b51f2447243a3119db605f0804bfba87cb4771964e60001b615609565b611ef37f418bed8bafb9d2b5b23cd6ce0a9bff082ecd0af5158ed76c1e3dc83dea494d0360001b615609565b611f1f7fa1c8c67f1240ac5f3fe6865f16339f33f2d0a0386b097942302317d6b44f56fa60001b615609565b611f29600261560c565b905090565b6060611f5c7fa1bb55d29adba2c1328414b0c5bd353c3f7b093be01afe68849ba03aeb613f9f60001b615609565b611f887fc4594520cec6c593db88459e7c91326bb1f193dbc17343aa10c9d0ada2ba941860001b615609565b611fb47fbf5dfca89c04a97fda75450e1cf9a1cc447a9c18e9b4fee5c3a3935b9e0d08d260001b615609565b6000611fc0600361560c565b67ffffffffffffffff811115611fff577f4e487b7100000000000000000000000000000000000000000000000000000000600052604160045260246000fd5b60405190808252806020026020018201604052801561203857816020015b612025615630565b81526020019060019003908161201d5790505b5090506120677fce93a1c5878fe096ded7f5645d84104412172d199809d5dea0c8cb48b110d9f860001b615609565b6120937fe51c7188a0103360a4d4dde3c661d6a0d8a9750b0db84bc55a8d2df2555f901e60001b615609565b60005b6120a0600361560c565b8110156122b9576120d37fc4e68677a21f72e30509ac0974ee61ba909d7ecff8a591ea34c80bea30a09f9660001b615609565b6120ff7fa986b553cbf2cac2990e72bd877332cb91f530f4c9f7694c8cb5e92e3891c7d860001b615609565b600460008281526020019081526020016000206040518060a0016040529081600082015481526020016001820160009054906101000a900473ffffffffffffffffffffffffffffffffffffffff1673ffffffffffffffffffffffffffffffffffffffff1673ffffffffffffffffffffffffffffffffffffffff1681526020016002820160009054906101000a900473ffffffffffffffffffffffffffffffffffffffff1673ffffffffffffffffffffffffffffffffffffffff1673ffffffffffffffffffffffffffffffffffffffff168152602001600382015481526020016004820160009054906101000a900460ff166004811115612228577f4e487b7100000000000000000000000000000000000000000000000000000000600052602160045260246000fd5b6004811115612260577f4e487b7100000000000000000000000000000000000000000000000000000000600052602160045260246000fd5b8152505082828151811061229d577f4e487b7100000000000000000000000000000000000000000000000000000000600052603260045260246000fd5b6020026020010181905250806122b290615fd4565b9050612096565b506122e67f3958a17e9378c8acf3e1df2032027e933059f50a23359d2cdde936ad3ee33d1760001b615609565b6123127f6ffb7c149814a3230dd73e25af6f72be3d2d5bfba8470086b67f67afaf676ef860001b615609565b8091505090565b60006123477fec6bb5c056feb55b8eb2ea4fcd5d99bb3f50a4a756dec68c283fbca770fa892060001b615609565b6123737fa1dd5bfba7ef67850320a97c6c7d605fca14d32d97d61d1daa7495a05286631c60001b615609565b61239f7f1686d787d7faf181924dd0d7ef8f6bf5e114e0d3eb02b19955863cd057af3ef960001b615609565b6123a9600361560c565b905090565b6123da7f4832ba9708c5a705e03106fc943abb4360ec725bb1458e59540c48c13cf0dc1b60001b615609565b6124067f3a164677244b737e1893f563382f70b410d0feb610c33b73b29cd685a26aa07660001b615609565b6124327f96d1c816ea2cbc85f3eb4e84e6b2399240525b3641fd3f9b2f250f57be4b010f60001b615609565b61245e7f376d3fd7069714c90f576223b50e3bb86dba81427af0e3e62d1576bc8f8976f760001b615609565b600660003373ffffffffffffffffffffffffffffffffffffffff1673ffffffffffffffffffffffffffffffffffffffff16815260200190815260200160002060009054906101000a900460ff166124b457600080fd5b6124e07fe81d9ac96dbdcb79d093fa10ccdf87d658311846f3bfe8413c83bf6ce81e5d2c60001b615609565b61250c7f641f448dc16c61797d6b9886868916c2bfa3626687c8a5c561ce48af9c6dd61d60001b615609565b806125397f58b613a87ae841e7c9c4b856eed337aa4478e8712faa1374989f8203d2465b5160001b615609565b6125657f1052f8a1825e0c5fa16c4c69f3d37fb7b775e9f4e3ec9784cfddb9a3b961d23a60001b615609565b6125917fa7f43a13f57c02b39125340d885f92e49e41b0bcecc58fbfcb21d92643e6155160001b615609565b6125bd7f56beade06a002f65122b43f7933f5e84952810d104843f9026782175df347e4360001b615609565b6125c7600361560c565b8111156125d357600080fd5b6125ff7f99bfae91cd95a45535906786e4cb6927c88d21e45174c177097c1a3436b4cb1260001b615609565b61262b7f58afa510a0e14201b5aecea08da5929405f123a6f00cb8aa8c4e4ae13d61d09160001b615609565b816126587f5b1490c6144440f2755b4f4f9c3cec399bd069f850dd265dba6b6e4d210fd7c860001b615609565b6126847f2b67407745a5d9aa0f9e3684ee315d274ff6f34665b641fef5cd2d3c286234b260001b615609565b6126b07f704c328c4fb09abba4bd7ce97553d25bbcd93bb0d5e5ef1bd45be3482a5e61f160001b615609565b6126dc7fe92aa6f8688a3aefd3f7065e3286dd27858b1a0248271cce3b44197cc31d0dea60001b615609565b3373ffffffffffffffffffffffffffffffffffffffff166004600083815260200190815260200160002060020160009054906101000a900473ffffffffffffffffffffffffffffffffffffffff1673ffffffffffffffffffffffffffffffffffffffff161461274a57600080fd5b6127767fbc428615df806895e4bb550611d6ebff79401c7bd1726c8fe813795765ac8d4360001b615609565b6127a27f6c16f8d7190425255746c59c545b05e3a42c961b2f051215cde5df86d5d11b3060001b615609565b6127ce7fc553009a73135176ee3a1885d50ec42c4b17a9f0465fac0a8bbc171a3f92163660001b615609565b6127fa7f3528cdcef7daacb02bb8937544b16aa0313116abb394c910c9552e59918bdddb60001b615609565b6128267f710826d06843b6a0f0bb421e1be3f236ae1d35d07df2e3d35eaac3f373607d7460001b615609565b6000600460008581526020019081526020016000206040518060a0016040529081600082015481526020016001820160009054906101000a900473ffffffffffffffffffffffffffffffffffffffff1673ffffffffffffffffffffffffffffffffffffffff1673ffffffffffffffffffffffffffffffffffffffff1681526020016002820160009054906101000a900473ffffffffffffffffffffffffffffffffffffffff1673ffffffffffffffffffffffffffffffffffffffff1673ffffffffffffffffffffffffffffffffffffffff168152602001600382015481526020016004820160009054906101000a900460ff166004811115612951577f4e487b7100000000000000000000000000000000000000000000000000000000600052602160045260246000fd5b6004811115612989577f4e487b7100000000000000000000000000000000000000000000000000000000600052602160045260246000fd5b8152505090506129bb7fc1ac2c8dea889c7fa0c0fdc5ba8989d53857f0be6e722381c61ca35cb4e8b10460001b615609565b6129e77f8f71e4116f60c1bb35a060d9f1211d694fa46e5af8cc522a1119ddf18c6a6c4860001b615609565b612a137f367bcd5520232ca4a3673eb395855b2200a63a1882a3bbbe36ceb79f8bedd19260001b615609565b60036004811115612a4d577f4e487b7100000000000000000000000000000000000000000000000000000000600052602160045260246000fd5b81608001516004811115612a8a577f4e487b7100000000000000000000000000000000000000000000000000000000600052602160045260246000fd5b14612aca576040517f08c379a0000000000000000000000000000000000000000000000000000000008152600401612ac190615e68565b60405180910390fd5b612af67fdd2ca8ba4dbb896411a702aea7636dad102d90181ef85693bbe8e9133fd7dcee60001b615609565b612b227fc36d6ba8d9d7323856f2b9e2f98759bf6da4cb63a90b53c852860187379568f760001b615609565b612b4e7f3414b1f113002ad2c82b154d6dbaf979b8cf05cce267668f9db94d74991d366960001b615609565b600081606001519050612b837f65724e4be487ec2f5c6931cd74be8da79e336189fe88874f0c1eb48105873d1d60001b615609565b612baf7f9143192a10a74e1ad0379cbb07af410b20c4f59640969bcd7e4b124b7cf247b860001b615609565b612bdb7f6e7be72625529fd0b352fbc39e80a6e1781308159ab95418cee4f17f39f653f460001b615609565b803414612c1d576040517f08c379a0000000000000000000000000000000000000000000000000000000008152600401612c1490615de8565b60405180910390fd5b612c497f31ca3642da4f77ac0ccb838ac8ab0f79ffc0c833cb0b3bd81f1d1f9f62ebf5f360001b615609565b612c757f474c85169ed2a6c7853a180e2705459a22f7f999c6e1bc3f84385b883b0658db60001b615609565b612ca17f3281addc4be7e75d77c84e4cf065f2889054dbebc02bf30f6244cb185a70f57360001b615609565b600482608001906004811115612ce0577f4e487b7100000000000000000000000000000000000000000000000000000000600052602160045260246000fd5b90816004811115612d1a577f4e487b7100000000000000000000000000000000000000000000000000000000600052602160045260246000fd5b81525050612d4a7f46727316ad0447ea060e2680a91a00b3323f585d6a46cfadbe7dfd3e3b42951260001b615609565b612d767f01d011da5c6d5fe8070b5254d64b3ce2cbb6766e01cd1e02a7cde846f5a189e360001b615609565b816020015173ffffffffffffffffffffffffffffffffffffffff166108fc349081150290604051600060405180830381858888f19350505050158015612dc0573d6000803e3d6000fd5b50612ded7fb47e36d790ad4e87ab7e07b590aa3710fe2a05df392910d35e07f95ff3c8438460001b615609565b612e197fbcfddc734cd000c77b17b800ac829357f0b41af6c83513f0781769cc78d775c060001b615609565b81600460008781526020019081526020016000206000820151816000015560208201518160010160006101000a81548173ffffffffffffffffffffffffffffffffffffffff021916908373ffffffffffffffffffffffffffffffffffffffff16021790555060408201518160020160006101000a81548173ffffffffffffffffffffffffffffffffffffffff021916908373ffffffffffffffffffffffffffffffffffffffff1602179055506060820151816003015560808201518160040160006101000a81548160ff02191690836004811115612f20577f4e487b7100000000000000000000000000000000000000000000000000000000600052602160045260246000fd5b0217905550905050612f547fc62186c3afb1d5f2789920c52bb405c2afa1b85f47d0dcbe6f41c92d96076c2d60001b615609565b612f807f5c2402b60bf659a042db03024c4452026aff490d8f7d446c1b0bb38582a322e460001b615609565b7f49167837b3700769af84a71ed585717cda4002b1147dcda90f6f90e2278b7b1782604051612faf9190615ea8565b60405180910390a15050505050565b6060612fec7f639d4f44dcffd51a94ab05a76a8ea777474f545ea01f231e914c624c9740d26f60001b615609565b6130187feab5dfbe6a7e2d190cbbf8baa231d18ada6aa9cce5a574d755486c9688f132a060001b615609565b6130447f8ac59ed82c35a2582da5727a05d2de9e3a7450bb40dd58832bb99c740ee5bae160001b615609565b6000613050600261560c565b67ffffffffffffffff81111561308f577f4e487b7100000000000000000000000000000000000000000000000000000000600052604160045260246000fd5b6040519080825280602002602001820160405280156130bd5781602001602082028036833780820191505090505b5090506130ec7fe00c1a8520a6fed3fb5588368c30a4767373dd25f85b234b15c9795720f2d25e60001b615609565b6131187f2f6119cafc194cd492958d1cbf04f272958e2f7cf2a6dfa143e298ba1ed3a3f460001b615609565b60005b613125600261560c565b81101561323c576131587f25a200152b4cbee62f75bdb7352fba2c76eebcd9e2527ecf108b624809711a2e60001b615609565b6131847f8508ebea61ea3c334cebfe216d93939491d4bc7cf9fc6ddb2141361bdba3c8b060001b615609565b6007600082815260200190815260200160002060009054906101000a900473ffffffffffffffffffffffffffffffffffffffff168282815181106131f1577f4e487b7100000000000000000000000000000000000000000000000000000000600052603260045260246000fd5b602002602001019073ffffffffffffffffffffffffffffffffffffffff16908173ffffffffffffffffffffffffffffffffffffffff16815250508061323590615fd4565b905061311b565b506132697f0a23099c288c221d6d573aba0a110bb440bb27097a595b71b83b225e3dab8a8d60001b615609565b6132957fcbc776cc1565cb3b8b63b0b1d44e01f703209eac929b0ec98cdb4d8ededff66b60001b615609565b8091505090565b6132c87f4f34a748c2772d21e96a56c7fe196f692f3d95b1b4424376bbaf0208cebd36c060001b615609565b6132f47f4bf3e80d10365576ae775e4dfcac002566af1213da9da02088f85bfbd142a26360001b615609565b6133207f5ac60c2773c3ef67fe66f6b3dfcf9a877e2b8f87e668e501ea1d56733c8d462760001b615609565b61334c7f13990940865eb861e4f8ee9f5ffead2e15b496cf49399052ea4c83d611ad674960001b615609565b600560003373ffffffffffffffffffffffffffffffffffffffff1673ffffffffffffffffffffffffffffffffffffffff16815260200190815260200160002060009054906101000a900460ff166133a257600080fd5b6133ce7f146df7190d3365d90361a2d29ccd15b4c314142a114d04a56fa7882a35b62c5b60001b615609565b6133fa7f397c00e0ce56697741e643e63bcb901227d988dd09290170f902ed1949451a7f60001b615609565b806134277f58b613a87ae841e7c9c4b856eed337aa4478e8712faa1374989f8203d2465b5160001b615609565b6134537f1052f8a1825e0c5fa16c4c69f3d37fb7b775e9f4e3ec9784cfddb9a3b961d23a60001b615609565b61347f7fa7f43a13f57c02b39125340d885f92e49e41b0bcecc58fbfcb21d92643e6155160001b615609565b6134ab7f56beade06a002f65122b43f7933f5e84952810d104843f9026782175df347e4360001b615609565b6134b5600361560c565b8111156134c157600080fd5b6134ed7f99bfae91cd95a45535906786e4cb6927c88d21e45174c177097c1a3436b4cb1260001b615609565b6135197f58afa510a0e14201b5aecea08da5929405f123a6f00cb8aa8c4e4ae13d61d09160001b615609565b816135467f5678d62b8a11d3915476c576bfc1e2f17f0284d322781a33cde50ee1ff75c95360001b615609565b6135727f391a1ed1a3c4e87e4cf1d24abeb630794a369307fdf9ef49e5a2bc238d8b10b160001b615609565b61359e7f0ae82c2e9ef6344925784623d7b2596ad0c5b43c5b3695c38f769486f2e1dee260001b615609565b6135ca7fa4e634b265ff3dc13d63b88dc022cea8e7499e6aa5584dfaaa985a508e76f82560001b615609565b3373ffffffffffffffffffffffffffffffffffffffff166004600083815260200190815260200160002060010160009054906101000a900473ffffffffffffffffffffffffffffffffffffffff1673ffffffffffffffffffffffffffffffffffffffff161461363857600080fd5b6136647f4c764554cac42f71e46760cdff5aa7369defcdbf810ea61b985283dbd616acdf60001b615609565b6136907fd6d60df78605eab04e0ab2b4a13b0ece1e36c4c00b2fdf6b22586a0e9dc88dd060001b615609565b6136bc7f302ac9b8a6af0dcabcf7f16e2921c2dc4d4587ee52ab9a193ef697d93b7592e560001b615609565b6136e87f2d9cc66e61f52db59a6b69c8cf6b1d4aad7cb0fe1c1cbc6f9dd24aff512cca1160001b615609565b6137147f2c25df96596b4d613d6c3cf1c1057c28ccc2fd12557bf3e8ae78165fcc73e0db60001b615609565b6000600460008581526020019081526020016000206040518060a0016040529081600082015481526020016001820160009054906101000a900473ffffffffffffffffffffffffffffffffffffffff1673ffffffffffffffffffffffffffffffffffffffff1673ffffffffffffffffffffffffffffffffffffffff1681526020016002820160009054906101000a900473ffffffffffffffffffffffffffffffffffffffff1673ffffffffffffffffffffffffffffffffffffffff1673ffffffffffffffffffffffffffffffffffffffff168152602001600382015481526020016004820160009054906101000a900460ff16600481111561383f577f4e487b7100000000000000000000000000000000000000000000000000000000600052602160045260246000fd5b6004811115613877577f4e487b7100000000000000000000000000000000000000000000000000000000600052602160045260246000fd5b8152505090506138a97fddcb50e7eb3ef60ec5943141dc0dbaaa982ac0a42954fad81d64f03e3d26a53060001b615609565b6138d57ff40163626d524f46fd93c208b8fbea5d542755cfadd3e62903172a204bb4824760001b615609565b6139017f76ee8e1c7dd65fec8ed7e779239ca69fa4e9e1c44bed53f06c1e478f09e78a2460001b615609565b6000600481111561393b577f4e487b7100000000000000000000000000000000000000000000000000000000600052602160045260246000fd5b81608001516004811115613978577f4e487b7100000000000000000000000000000000000000000000000000000000600052602160045260246000fd5b146139b8576040517f08c379a00000000000000000000000000000000000000000000000000000000081526004016139af90615e88565b60405180910390fd5b6139e47fa8b3d29a1eab8becc84ef7b9d71163d7a94a8b5063679695028f1d9f4034878e60001b615609565b613a107f8080683677fd847e06e33cb39fdc4d18155c04ebd9d29db820ff1b8d2738479c60001b615609565b613a3c7f45f8608c968ea3ad58adcbaac916140edfe88ed4fd90e6124410e5bb6c7d673860001b615609565b600081606001519050613a717f126a78d86688bd508819f07307a9bfc662815f187db2ae3889f5a8109a7f1dfd60001b615609565b613a9d7fb873de403436d92c5403a1524f6d353f42763f97b1f4216a584bc5039d52d8f360001b615609565b600082604001519050613ad27f2ec9ec078096401811c2765e572c4cfb729e0fac594c1cc8de7e963ac3848af560001b615609565b613afe7f7d84e31e72c258d26c73e00dc1de09f7563a491a6395d02b5c28eeb10ce82cab60001b615609565b600183608001906004811115613b3d577f4e487b7100000000000000000000000000000000000000000000000000000000600052602160045260246000fd5b90816004811115613b77577f4e487b7100000000000000000000000000000000000000000000000000000000600052602160045260246000fd5b81525050613ba77f6631309e1bef6525e46891d0066eb4e378a7140f1ba4af11d0b5b386845a281660001b615609565b613bd37f754d9deea9f23f9a9850208a9a3b098568818e75c97e180ddd14265ce022f6ee60001b615609565b8073ffffffffffffffffffffffffffffffffffffffff166108fc839081150290604051600060405180830381858888f19350505050158015613c19573d6000803e3d6000fd5b50613c467fc745baeea8d8d85147fb4307a9ca0c8c1402144cd597ebd8be04193b2208dafe60001b615609565b613c727f18cb98bcb99116896cea9e56143dc71cc11a544cff15da61b245b2762ceedcc760001b615609565b82600460008881526020019081526020016000206000820151816000015560208201518160010160006101000a81548173ffffffffffffffffffffffffffffffffffffffff021916908373ffffffffffffffffffffffffffffffffffffffff16021790555060408201518160020160006101000a81548173ffffffffffffffffffffffffffffffffffffffff021916908373ffffffffffffffffffffffffffffffffffffffff1602179055506060820151816003015560808201518160040160006101000a81548160ff02191690836004811115613d79577f4e487b7100000000000000000000000000000000000000000000000000000000600052602160045260246000fd5b0217905550905050613dad7f4823c115f261cce6e61c9794b3c61f827de4fff51658db627c86a31c3c49591560001b615609565b613dd97fd8116f501b2b5da51fb4815c78ad7e6680579adcba13c119e1d099ccab75e0d460001b615609565b7fca8a3ec12e36c28d376d2e6e727bff8209343ed60f18a9ec43f36a6b5f96ad4b83604051613e089190615ea8565b60405180910390a1505050505050565b600160009054906101000a900473ffffffffffffffffffffffffffffffffffffffff1681565b613e6a7f4f34a748c2772d21e96a56c7fe196f692f3d95b1b4424376bbaf0208cebd36c060001b615609565b613e967f4bf3e80d10365576ae775e4dfcac002566af1213da9da02088f85bfbd142a26360001b615609565b613ec27f5ac60c2773c3ef67fe66f6b3dfcf9a877e2b8f87e668e501ea1d56733c8d462760001b615609565b613eee7f13990940865eb861e4f8ee9f5ffead2e15b496cf49399052ea4c83d611ad674960001b615609565b600560003373ffffffffffffffffffffffffffffffffffffffff1673ffffffffffffffffffffffffffffffffffffffff16815260200190815260200160002060009054906101000a900460ff16613f4457600080fd5b613f707f146df7190d3365d90361a2d29ccd15b4c314142a114d04a56fa7882a35b62c5b60001b615609565b613f9c7f397c00e0ce56697741e643e63bcb901227d988dd09290170f902ed1949451a7f60001b615609565b80613fc97f58b613a87ae841e7c9c4b856eed337aa4478e8712faa1374989f8203d2465b5160001b615609565b613ff57f1052f8a1825e0c5fa16c4c69f3d37fb7b775e9f4e3ec9784cfddb9a3b961d23a60001b615609565b6140217fa7f43a13f57c02b39125340d885f92e49e41b0bcecc58fbfcb21d92643e6155160001b615609565b61404d7f56beade06a002f65122b43f7933f5e84952810d104843f9026782175df347e4360001b615609565b614057600361560c565b81111561406357600080fd5b61408f7f99bfae91cd95a45535906786e4cb6927c88d21e45174c177097c1a3436b4cb1260001b615609565b6140bb7f58afa510a0e14201b5aecea08da5929405f123a6f00cb8aa8c4e4ae13d61d09160001b615609565b816140e87f5678d62b8a11d3915476c576bfc1e2f17f0284d322781a33cde50ee1ff75c95360001b615609565b6141147f391a1ed1a3c4e87e4cf1d24abeb630794a369307fdf9ef49e5a2bc238d8b10b160001b615609565b6141407f0ae82c2e9ef6344925784623d7b2596ad0c5b43c5b3695c38f769486f2e1dee260001b615609565b61416c7fa4e634b265ff3dc13d63b88dc022cea8e7499e6aa5584dfaaa985a508e76f82560001b615609565b3373ffffffffffffffffffffffffffffffffffffffff166004600083815260200190815260200160002060010160009054906101000a900473ffffffffffffffffffffffffffffffffffffffff1673ffffffffffffffffffffffffffffffffffffffff16146141da57600080fd5b6142067f4c764554cac42f71e46760cdff5aa7369defcdbf810ea61b985283dbd616acdf60001b615609565b6142327fd6d60df78605eab04e0ab2b4a13b0ece1e36c4c00b2fdf6b22586a0e9dc88dd060001b615609565b61425e7f25d6b5d067f956605c07f50de5d5327f1c767e20f15981e6c242b9cf28cfe2b660001b615609565b61428a7f514005abdf62babd3c58ac535caf4e1cfab63e706f6053e0ba4a3f382d058f2960001b615609565b6142b67f7448d752666de44da3074004be02585429642af63ebad40bb7c073632a1413b260001b615609565b6000600460008581526020019081526020016000206040518060a0016040529081600082015481526020016001820160009054906101000a900473ffffffffffffffffffffffffffffffffffffffff1673ffffffffffffffffffffffffffffffffffffffff1673ffffffffffffffffffffffffffffffffffffffff1681526020016002820160009054906101000a900473ffffffffffffffffffffffffffffffffffffffff1673ffffffffffffffffffffffffffffffffffffffff1673ffffffffffffffffffffffffffffffffffffffff168152602001600382015481526020016004820160009054906101000a900460ff1660048111156143e1577f4e487b7100000000000000000000000000000000000000000000000000000000600052602160045260246000fd5b6004811115614419577f4e487b7100000000000000000000000000000000000000000000000000000000600052602160045260246000fd5b81525050905061444b7f5193bad07a44cdd79302560b8038ebe02c1dbcfef9166a5b8452f2523e83244660001b615609565b6144777f332237b6afe243abf5aa138881a2d5bdc81954346bd29bea10fd2083c2b00cd860001b615609565b6144a37f075e568fdd7901f959bd5ff22cbd32cebca0d661c32d1ff281cc957e35bf7f1460001b615609565b600060048111156144dd577f4e487b7100000000000000000000000000000000000000000000000000000000600052602160045260246000fd5b8160800151600481111561451a577f4e487b7100000000000000000000000000000000000000000000000000000000600052602160045260246000fd5b148061459a57506001600481111561455b577f4e487b7100000000000000000000000000000000000000000000000000000000600052602160045260246000fd5b81608001516004811115614598577f4e487b7100000000000000000000000000000000000000000000000000000000600052602160045260246000fd5b145b6145d9576040517f08c379a00000000000000000000000000000000000000000000000000000000081526004016145d090615e28565b60405180910390fd5b6146057fad267c4ce4ad1a772bb75fcea0c6c8d619cb7263fd7d3f87a95c8a444a54f48c60001b615609565b6146317fe9d571070dda622ef1b98e9a7defea59860b54f9acc994455f8fc97bc708a17860001b615609565b61465d7f7d385577be3deded07cce6f09d4d5b5efd937cc31d736a30a80cb0984d31783c60001b615609565b60006004811115614697577f4e487b7100000000000000000000000000000000000000000000000000000000600052602160045260246000fd5b816080015160048111156146d4577f4e487b7100000000000000000000000000000000000000000000000000000000600052602160045260246000fd5b1415614916576147067f78672a317598512ff0284912f2b6bd8099792442f70646871d115f74151877bf60001b615609565b6147327f465aa554f696f66c9d7331afff9df3f351e7433a581d678969910b0d8ed4cd0a60001b615609565b61475e7fad6e58ced39ec8df749002d21300270446c793c4298de8f3f3ff63b00a83ec9a60001b615609565b60048160800190600481111561479d577f4e487b7100000000000000000000000000000000000000000000000000000000600052602160045260246000fd5b908160048111156147d7577f4e487b7100000000000000000000000000000000000000000000000000000000600052602160045260246000fd5b815250506148077f800998309977d81878c7da2aea42f4aab0666a9eae0f06aa5060c6159e806da960001b615609565b6148337f0ed4428e10eac7528dadccb22e65f85443afaa4a9611dd62678b635624afb61e60001b615609565b806020015173ffffffffffffffffffffffffffffffffffffffff166108fc82606001519081150290604051600060405180830381858888f19350505050158015614881573d6000803e3d6000fd5b506148ae7f97ecdd36240e2fc9071598c0de2fe9a64fd58e53bca77719d4db57e2999a838b60001b615609565b6148da7f096fbfb7320fc16cfcf09a8d9e0e526a11c07319a5d7c0f52412cae0320f1cc960001b615609565b7f49167837b3700769af84a71ed585717cda4002b1147dcda90f6f90e2278b7b17816040516149099190615ea8565b60405180910390a1614aa7565b6149427f101dfbdf99fd6147aa170eb282ab1a2f6e099c3ffc90ac610e2826abd2bf0d5f60001b615609565b61496e7f6b535edeb76c136024cbe8a37575556eecf3bc0840dd519df156db21a78f430d60001b615609565b61499a7f53a38e160ffaa3aaec9fbfd5bfbdffbb1dddae32c6f8e99f284c603a52cb9d6e60001b615609565b6003816080019060048111156149d9577f4e487b7100000000000000000000000000000000000000000000000000000000600052602160045260246000fd5b90816004811115614a13577f4e487b7100000000000000000000000000000000000000000000000000000000600052602160045260246000fd5b81525050614a437f450e339e2c96d4441c258a136e04a6414ac43859a39e7f64976bab465610a14260001b615609565b614a6f7fd16fb253e0f5c3f1b9a5a6e5155d2248977a82e5d80b5c4b4db71acef9bd300460001b615609565b7f2e44ab1a5efe488b5938b76f2210ea54da91b34c438b66c64c983627db40006d81604051614a9e9190615ea8565b60405180910390a15b614ad37f17d76eece9032ababc273bafed9e0b807cb71416dc1c26ea5ec593375d04c53e60001b615609565b614aff7f14307238dedcaf7d98a64352c7ba45191a7dfa34487fb37959483951f075a5af60001b615609565b80600460008681526020019081526020016000206000820151816000015560208201518160010160006101000a81548173ffffffffffffffffffffffffffffffffffffffff021916908373ffffffffffffffffffffffffffffffffffffffff16021790555060408201518160020160006101000a81548173ffffffffffffffffffffffffffffffffffffffff021916908373ffffffffffffffffffffffffffffffffffffffff1602179055506060820151816003015560808201518160040160006101000a81548160ff02191690836004811115614c06577f4e487b7100000000000000000000000000000000000000000000000000000000600052602160045260246000fd5b021790555090505050505050565b614c407fe120ce21a64e593f84ab42d14db4c26b55dad9cac8c173f3ddecae304f2f0e3360001b615609565b614c6c7fcfb6450f588efefa1fb940ea78c1935ccff36507c5b305d6f6446902f264732060001b615609565b614c987fd082e89edd2f0e664f2419a1c858755aff570abf1e9971f7646493adda6eb33d60001b615609565b614cc47f1cccb6c16e121f227d544777a27563f18f5e2b81e6176cac10289abb83c07a6360001b615609565b600660008273ffffffffffffffffffffffffffffffffffffffff1673ffffffffffffffffffffffffffffffffffffffff16815260200190815260200160002060009054906101000a900460ff16614d50576040517f08c379a0000000000000000000000000000000000000000000000000000000008152600401614d4790615d88565b60405180910390fd5b614d7c7f8d1925bf77af0f0d6e3b3b513bfd33944ade44fa4bb89093d7468ccad572f20b60001b615609565b614da87f1a6534ff3999e921ba988a5b73a834c03bbb628f1cd058b633dd5cf61d53b40d60001b615609565b614dd47f34355b4489c9fbef84aa6345efb212d80bb112c8ed2eb9b14173d4ff48c48e0160001b615609565b614e007fce8f7fd44acc737fbb234e0b37b642eb862459e602b11667c9b0ee8f3189ac8460001b615609565b60003411614e43576040517f08c379a0000000000000000000000000000000000000000000000000000000008152600401614e3a90615e48565b60405180910390fd5b614e6f7f4b0e50863c40a364e45543fbebb8c6e4eebd9a9915caaa9da7878d7ec66d220260001b615609565b614e9b7faf2ec58d2093f18dd71c68465be1e75802c673281bd7a0adfdc996593966ea0560001b615609565b614ec77f610148473a26db9cdf875a92a7e678c6c02d494dfeb99a89b928f908187b7d8b60001b615609565b6000339050614ef87f5ac0bcd1125464bdcd2bb883585a8b9f4d48ee673fcc8b65270611e2451a640360001b615609565b614f247f49592e7d46c1d1370ab16361270fd408d698287315cc37d4d4b8e2749e48757460001b615609565b6000349050614f557f95a46fc221920b8e6147b030faeec21f9f8ad376452a8f6960dea0614085b27860001b615609565b614f817f4818a6c96f029065737c37b9ad021597528683654f0617e78bd91c080df8a92260001b615609565b600560008373ffffffffffffffffffffffffffffffffffffffff1673ffffffffffffffffffffffffffffffffffffffff16815260200190815260200160002060009054906101000a900460ff166150b357614ffe7f4cd4f55bd160708933e71505672258c1bcdafee896b2f539b5a87bea3b75e1a160001b615609565b61502a7fd4dc04b25de48a102397e9f65d242b341b72ff309e3e4a9e2b4392ab00b7358d60001b615609565b6150567f04ae6ca0590cd93dd2fe1c8ea846006da43916ecfd232936b06c4702b6f45b6160001b615609565b6001600560008473ffffffffffffffffffffffffffffffffffffffff1673ffffffffffffffffffffffffffffffffffffffff16815260200190815260200160002060006101000a81548160ff0219169083151502179055506150e0565b6150df7f5933df87a6ba6f7466e05a362fedbd734a57669d33586bd1a3e26c9244e557df60001b615609565b5b61510c7fc87105e01b32f98ad727bd84d9a7189738f787d9f5ddeda896ad719f2e802d8460001b615609565b6151387f6ade566563f2b2433302258ec445f76ed53611f7d224358d11904f4a022b14d760001b615609565b6000615144600361560c565b90506151727f7dd08d97d810ba933aaa7d0ad6618938180c0862790510baae85f5c070a1f62160001b615609565b61519e7fb70532fd9b0d7dff0e96ca8f0b199284dc0fa4b86306d3dcca6e7790c65882a660001b615609565b60006040518060a001604052808381526020018573ffffffffffffffffffffffffffffffffffffffff1681526020018673ffffffffffffffffffffffffffffffffffffffff16815260200184815260200160006004811115615229577f4e487b7100000000000000000000000000000000000000000000000000000000600052602160045260246000fd5b815250905061525a7fe76f4f43a8b8f26689265e12481b9f1d67bb0cafe407f4f179a5c351aa89728160001b615609565b6152867f39299fbab6ac184825ed4d505581ce9cb16699822d6e20aed3b0d5b883e11c1160001b615609565b80600460008481526020019081526020016000206000820151816000015560208201518160010160006101000a81548173ffffffffffffffffffffffffffffffffffffffff021916908373ffffffffffffffffffffffffffffffffffffffff16021790555060408201518160020160006101000a81548173ffffffffffffffffffffffffffffffffffffffff021916908373ffffffffffffffffffffffffffffffffffffffff1602179055506060820151816003015560808201518160040160006101000a81548160ff0219169083600481111561538d577f4e487b7100000000000000000000000000000000000000000000000000000000600052602160045260246000fd5b02179055509050506153c17f7d8c38158be3acfdcf4c92beaf910cc75843aefe83bb447f33d4d29514ceded960001b615609565b6153ed7f6ec79342d2b0d1a96d62fc474b576bd4c1e3101e2424d887315c3f8e9b2fd01160001b615609565b600860008573ffffffffffffffffffffffffffffffffffffffff1673ffffffffffffffffffffffffffffffffffffffff16815260200190815260200160002082908060018154018082558091505060019003906000526020600020016000909190919091505561547f7f1a306d7010f3a294cbc1a10e8775b030962f46367d0292fa85bb5e9d5d08798560001b615609565b6154ab7fa0cc602d35948c67e75704a28cd0b37fbf254835cdb6629d329576319834f4b860001b615609565b600960008673ffffffffffffffffffffffffffffffffffffffff1673ffffffffffffffffffffffffffffffffffffffff16815260200190815260200160002082908060018154018082558091505060019003906000526020600020016000909190919091505561553d7fc3c32e783ee89e5fd8bef2315b9f3177fc72a728fc2011e2638f822a6c9c87dd60001b615609565b6155697f988ad87aff3d290935d0507a45359bab2a8686b4f3464a2c4f1d21b09f1a5b5660001b615609565b615573600361561a565b61559f7f588a2e660ff74d8ae21e3d2e87033a7b4694b525056948dfa32c44c14efd857e60001b615609565b6155cb7f8e44292616262f6b1bb31c5b1ce3e5fd3b9f70712fb776d9d7a738cd142f01b460001b615609565b7f27b93a0e3b929c90b72a07f1497499ddc2ab97ecf645a259a7b741d0fd0d6d4c816040516155fa9190615ea8565b60405180910390a15050505050565b50565b600081600001549050919050565b6001816000016000828254019250508190555050565b6040518060a0016040528060008152602001600073ffffffffffffffffffffffffffffffffffffffff168152602001600073ffffffffffffffffffffffffffffffffffffffff16815260200160008152602001600060048111156156bd577f4e487b7100000000000000000000000000000000000000000000000000000000600052602160045260246000fd5b81525090565b6000813590506156d28161608f565b92915050565b6000813590506156e7816160a6565b92915050565b6000813590506156fc816160bd565b92915050565b60006020828403121561571457600080fd5b6000615722848285016156c3565b91505092915050565b60006020828403121561573d57600080fd5b600061574b848285016156d8565b91505092915050565b60006020828403121561576657600080fd5b6000615774848285016156ed565b91505092915050565b600061578983836157bc565b60208301905092915050565b60006157a18383615c3b565b60a08301905092915050565b6157b681615f73565b82525050565b6157c581615f61565b82525050565b6157d481615f61565b82525050565b60006157e582615efe565b6157ef8185615f2e565b93506157fa83615ede565b8060005b8381101561582b578151615812888261577d565b975061581d83615f14565b9250506001810190506157fe565b5085935050505092915050565b600061584382615f09565b61584d8185615f3f565b935061585883615eee565b8060005b838110156158895781516158708882615795565b975061587b83615f21565b92505060018101905061585c565b5085935050505092915050565b61589f81615fc2565b82525050565b60006158b2603483615f50565b91507f4552524f523a20546869732073656c6c65722069736e2774207265676973746560008301527f72656420696e206f757220706c6174666f726d2e0000000000000000000000006020830152604082019050919050565b6000615918602083615f50565b91507f4552524f523a20596f752061726520616c726561647920612073656c6c65722e6000830152602082019050919050565b6000615958602383615f50565b91507f4552524f523a20596f752063616e27742064656c6574652074686973206f726460008301527f65722e00000000000000000000000000000000000000000000000000000000006020830152604082019050919050565b60006159be604783615f50565b91507f4552524f523a2054686520616d6f756e7420796f752077616e74656420746f2060008301527f73656e64206973206e6f7420657175616c20746f20746865206f72646572277360208301527f2070726963652e000000000000000000000000000000000000000000000000006040830152606082019050919050565b6000615a4a602c83615f50565b91507f546869732075736572206973206e6f74207265676973746572656420696e206f60008301527f757220706c6174666f726d2e00000000000000000000000000000000000000006020830152604082019050919050565b6000615ab0602b83615f50565b91507f4552524f523a20596f752063616e27742061736b20726566756e6420666f722060008301527f74686973206f726465722e0000000000000000000000000000000000000000006020830152604082019050919050565b6000615b16602683615f50565b91507f4552524f523a20546865206f7264657220616d6f756e742063616e277420626560008301527f206e756c6c2e00000000000000000000000000000000000000000000000000006020830152604082019050919050565b6000615b7c603183615f50565b91507f4552524f523a20596f752063616e277420706572666f726d206120726566756e60008301527f6420666f722074686973206f726465722e0000000000000000000000000000006020830152604082019050919050565b6000615be2602483615f50565b91507f4552524f523a20596f752063616e277420636f6e6669726d2074686973206f7260008301527f6465722e000000000000000000000000000000000000000000000000000000006020830152604082019050919050565b60a082016000820151615c516000850182615d0b565b506020820151615c6460208501826157ad565b506040820151615c7760408501826157ad565b506060820151615c8a6060850182615d0b565b506080820151615c9d6080850182615896565b50505050565b60a082016000820151615cb96000850182615d0b565b506020820151615ccc60208501826157ad565b506040820151615cdf60408501826157ad565b506060820151615cf26060850182615d0b565b506080820151615d056080850182615896565b50505050565b615d1481615fb8565b82525050565b615d2381615fb8565b82525050565b6000602082019050615d3e60008301846157cb565b92915050565b60006020820190508181036000830152615d5e81846157da565b905092915050565b60006020820190508181036000830152615d808184615838565b905092915050565b60006020820190508181036000830152615da1816158a5565b9050919050565b60006020820190508181036000830152615dc18161590b565b9050919050565b60006020820190508181036000830152615de18161594b565b9050919050565b60006020820190508181036000830152615e01816159b1565b9050919050565b60006020820190508181036000830152615e2181615a3d565b9050919050565b60006020820190508181036000830152615e4181615aa3565b9050919050565b60006020820190508181036000830152615e6181615b09565b9050919050565b60006020820190508181036000830152615e8181615b6f565b9050919050565b60006020820190508181036000830152615ea181615bd5565b9050919050565b600060a082019050615ebd6000830184615ca3565b92915050565b6000602082019050615ed86000830184615d1a565b92915050565b6000819050602082019050919050565b6000819050602082019050919050565b600081519050919050565b600081519050919050565b6000602082019050919050565b6000602082019050919050565b600082825260208201905092915050565b600082825260208201905092915050565b600082825260208201905092915050565b6000615f6c82615f98565b9050919050565b6000615f7e82615f98565b9050919050565b6000819050615f938261607b565b919050565b600073ffffffffffffffffffffffffffffffffffffffff82169050919050565b6000819050919050565b6000615fcd82615f85565b9050919050565b6000615fdf82615fb8565b91507fffffffffffffffffffffffffffffffffffffffffffffffffffffffffffffffff8214156160125761601161601d565b5b600182019050919050565b7f4e487b7100000000000000000000000000000000000000000000000000000000600052601160045260246000fd5b7f4e487b7100000000000000000000000000000000000000000000000000000000600052602160045260246000fd5b6005811061608c5761608b61604c565b5b50565b61609881615f61565b81146160a357600080fd5b50565b6160af81615f73565b81146160ba57600080fd5b50565b6160c681615fb8565b81146160d157600080fd5b5056fea26469706673582212201e7693f98a3680821e399262fee9d415b37fadd1188bbac347eba16736b8567564736f6c63430008000033",
  "linkReferences": {},
  "deployedLinkReferences": {}
}