{
  "_format": "hh-sol-artifact-1",
  "contractName": "Escrow",
  "sourceName": "contracts/escrow.sol",
  "abi": [
    {
      "anonymous": false,
      "inputs": [
        {
          "components": [
            {
              "internalType": "uint256",
              "name": "id",
              "type": "uint256"
            },
            {
              "internalType": "address payable",
              "name": "buyer",
              "type": "address"
            },
            {
              "internalType": "uint256",
              "name": "amount",
              "type": "uint256"
            },
            {
              "internalType": "bool",
              "name": "confirmed",
              "type": "bool"
            },
            {
              "internalType": "bool",
              "name": "deleted",
              "type": "bool"
            },
            {
              "internalType": "bool",
              "name": "refundAsked",
              "type": "bool"
            },
            {
              "internalType": "bool",
              "name": "refunded",
              "type": "bool"
            }
          ],
          "indexed": false,
          "internalType": "struct Escrow.Order",
          "name": "order",
          "type": "tuple"
        }
      ],
      "name": "orderConfirmed",
      "type": "event"
    },
    {
      "anonymous": false,
      "inputs": [
        {
          "components": [
            {
              "internalType": "uint256",
              "name": "id",
              "type": "uint256"
            },
            {
              "internalType": "address payable",
              "name": "buyer",
              "type": "address"
            },
            {
              "internalType": "uint256",
              "name": "amount",
              "type": "uint256"
            },
            {
              "internalType": "bool",
              "name": "confirmed",
              "type": "bool"
            },
            {
              "internalType": "bool",
              "name": "deleted",
              "type": "bool"
            },
            {
              "internalType": "bool",
              "name": "refundAsked",
              "type": "bool"
            },
            {
              "internalType": "bool",
              "name": "refunded",
              "type": "bool"
            }
          ],
          "indexed": false,
          "internalType": "struct Escrow.Order",
          "name": "order",
          "type": "tuple"
        }
      ],
      "name": "orderCreated",
      "type": "event"
    },
    {
      "anonymous": false,
      "inputs": [
        {
          "components": [
            {
              "internalType": "uint256",
              "name": "id",
              "type": "uint256"
            },
            {
              "internalType": "address payable",
              "name": "buyer",
              "type": "address"
            },
            {
              "internalType": "uint256",
              "name": "amount",
              "type": "uint256"
            },
            {
              "internalType": "bool",
              "name": "confirmed",
              "type": "bool"
            },
            {
              "internalType": "bool",
              "name": "deleted",
              "type": "bool"
            },
            {
              "internalType": "bool",
              "name": "refundAsked",
              "type": "bool"
            },
            {
              "internalType": "bool",
              "name": "refunded",
              "type": "bool"
            }
          ],
          "indexed": false,
          "internalType": "struct Escrow.Order",
          "name": "order",
          "type": "tuple"
        }
      ],
      "name": "orderDeleted",
      "type": "event"
    },
    {
      "anonymous": false,
      "inputs": [
        {
          "components": [
            {
              "internalType": "uint256",
              "name": "id",
              "type": "uint256"
            },
            {
              "internalType": "address payable",
              "name": "buyer",
              "type": "address"
            },
            {
              "internalType": "uint256",
              "name": "amount",
              "type": "uint256"
            },
            {
              "internalType": "bool",
              "name": "confirmed",
              "type": "bool"
            },
            {
              "internalType": "bool",
              "name": "deleted",
              "type": "bool"
            },
            {
              "internalType": "bool",
              "name": "refundAsked",
              "type": "bool"
            },
            {
              "internalType": "bool",
              "name": "refunded",
              "type": "bool"
            }
          ],
          "indexed": false,
          "internalType": "struct Escrow.Order",
          "name": "order",
          "type": "tuple"
        }
      ],
      "name": "orderRefunded",
      "type": "event"
    },
    {
      "anonymous": false,
      "inputs": [
        {
          "components": [
            {
              "internalType": "uint256",
              "name": "id",
              "type": "uint256"
            },
            {
              "internalType": "address payable",
              "name": "buyer",
              "type": "address"
            },
            {
              "internalType": "uint256",
              "name": "amount",
              "type": "uint256"
            },
            {
              "internalType": "bool",
              "name": "confirmed",
              "type": "bool"
            },
            {
              "internalType": "bool",
              "name": "deleted",
              "type": "bool"
            },
            {
              "internalType": "bool",
              "name": "refundAsked",
              "type": "bool"
            },
            {
              "internalType": "bool",
              "name": "refunded",
              "type": "bool"
            }
          ],
          "indexed": false,
          "internalType": "struct Escrow.Order",
          "name": "order",
          "type": "tuple"
        }
      ],
      "name": "refundAsked",
      "type": "event"
    },
    {
      "inputs": [
        {
          "internalType": "uint256",
          "name": "_orderID",
          "type": "uint256"
        }
      ],
      "name": "askRefund",
      "outputs": [],
      "stateMutability": "nonpayable",
      "type": "function"
    },
    {
      "inputs": [
        {
          "internalType": "uint256",
          "name": "_orderID",
          "type": "uint256"
        }
      ],
      "name": "confirmOrder",
      "outputs": [],
      "stateMutability": "nonpayable",
      "type": "function"
    },
    {
      "inputs": [],
      "name": "createOrder",
      "outputs": [],
      "stateMutability": "payable",
      "type": "function"
    },
    {
      "inputs": [
        {
          "internalType": "uint256",
          "name": "_orderID",
          "type": "uint256"
        }
      ],
      "name": "deleteOrder",
      "outputs": [],
      "stateMutability": "nonpayable",
      "type": "function"
    },
    {
      "inputs": [],
      "name": "getBalance",
      "outputs": [
        {
          "internalType": "uint256",
          "name": "",
          "type": "uint256"
        }
      ],
      "stateMutability": "view",
      "type": "function"
    },
    {
      "inputs": [],
      "name": "getOrders",
      "outputs": [
        {
          "components": [
            {
              "internalType": "uint256",
              "name": "id",
              "type": "uint256"
            },
            {
              "internalType": "address payable",
              "name": "buyer",
              "type": "address"
            },
            {
              "internalType": "uint256",
              "name": "amount",
              "type": "uint256"
            },
            {
              "internalType": "bool",
              "name": "confirmed",
              "type": "bool"
            },
            {
              "internalType": "bool",
              "name": "deleted",
              "type": "bool"
            },
            {
              "internalType": "bool",
              "name": "refundAsked",
              "type": "bool"
            },
            {
              "internalType": "bool",
              "name": "refunded",
              "type": "bool"
            }
          ],
          "internalType": "struct Escrow.Order[]",
          "name": "",
          "type": "tuple[]"
        }
      ],
      "stateMutability": "view",
      "type": "function"
    },
    {
      "inputs": [],
      "name": "getSeller",
      "outputs": [
        {
          "internalType": "address",
          "name": "",
          "type": "address"
        }
      ],
      "stateMutability": "view",
      "type": "function"
    },
    {
      "inputs": [],
      "name": "getTotalOrders",
      "outputs": [
        {
          "internalType": "uint256",
          "name": "",
          "type": "uint256"
        }
      ],
      "stateMutability": "view",
      "type": "function"
    },
    {
      "inputs": [
        {
          "internalType": "uint256",
          "name": "_orderID",
          "type": "uint256"
        }
      ],
      "name": "refundBuyer",
      "outputs": [],
      "stateMutability": "payable",
      "type": "function"
    }
  ],
  "bytecode": "0x608060405273ab8483f64d9c6d1ecf9b849ae677dd3315835cb2600160006101000a81548173ffffffffffffffffffffffffffffffffffffffff021916908373ffffffffffffffffffffffffffffffffffffffff16021790555030600260006101000a81548173ffffffffffffffffffffffffffffffffffffffff021916908373ffffffffffffffffffffffffffffffffffffffff1602179055503480156100a657600080fd5b50612739806100b66000396000f3fe6080604052600436106100865760003560e01c8063392927631161005957806339292763146101355780636512e6ec146101515780638ac7d79c1461015b578063dbd0e1b614610184578063e47cad75146101af57610086565b806311a003271461008b57806312065fe0146100b45780632e2dc43e146100df578063375f16a71461010a575b600080fd5b34801561009757600080fd5b506100b260048036038101906100ad91906119a5565b6101d8565b005b3480156100c057600080fd5b506100c9610665565b6040516100d69190612076565b60405180910390f35b3480156100eb57600080fd5b506100f46106a6565b6040516101019190611e19565b60405180910390f35b34801561011657600080fd5b5061011f610894565b60405161012c9190612076565b60405180910390f35b61014f600480360381019061014a91906119a5565b6108a5565b005b610159610d2a565b005b34801561016757600080fd5b50610182600480360381019061017d91906119a5565b610f81565b005b34801561019057600080fd5b506101996114ce565b6040516101a69190611dfe565b60405180910390f35b3480156101bb57600080fd5b506101d660048036038101906101d191906119a5565b6114f8565b005b600160009054906101000a900473ffffffffffffffffffffffffffffffffffffffff1673ffffffffffffffffffffffffffffffffffffffff163373ffffffffffffffffffffffffffffffffffffffff161461023257600080fd5b61023c6000611911565b81111561027e576040517f08c379a000000000000000000000000000000000000000000000000000000000815260040161027590611efb565b60405180910390fd5b6000600460008381526020019081526020016000206040518060e0016040529081600082015481526020016001820160009054906101000a900473ffffffffffffffffffffffffffffffffffffffff1673ffffffffffffffffffffffffffffffffffffffff1673ffffffffffffffffffffffffffffffffffffffff168152602001600282015481526020016003820160009054906101000a900460ff161515151581526020016003820160019054906101000a900460ff161515151581526020016003820160029054906101000a900460ff161515151581526020016003820160039054906101000a900460ff16151515158152505090506000816040015190508160600151156103c4576040517f08c379a00000000000000000000000000000000000000000000000000000000081526004016103bb90611f3b565b60405180910390fd5b816080015115610409576040517f08c379a00000000000000000000000000000000000000000000000000000000081526004016104009061203b565b60405180910390fd5b8160c001511561044e576040517f08c379a00000000000000000000000000000000000000000000000000000000081526004016104459061201b565b60405180910390fd5b80600260009054906101000a900473ffffffffffffffffffffffffffffffffffffffff1673ffffffffffffffffffffffffffffffffffffffff163110156104ca576040517f08c379a00000000000000000000000000000000000000000000000000000000081526004016104c190611fdb565b60405180910390fd5b816020015173ffffffffffffffffffffffffffffffffffffffff166108fc829081150290604051600060405180830381858888f19350505050158015610514573d6000803e3d6000fd5b50600182608001901515908115158152505060018260c001901515908115158152505081600460008581526020019081526020016000206000820151816000015560208201518160010160006101000a81548173ffffffffffffffffffffffffffffffffffffffff021916908373ffffffffffffffffffffffffffffffffffffffff1602179055506040820151816002015560608201518160030160006101000a81548160ff02191690831515021790555060808201518160030160016101000a81548160ff02191690831515021790555060a08201518160030160026101000a81548160ff02191690831515021790555060c08201518160030160036101000a81548160ff0219169083151502179055509050507f13cd19292768dc3f826dddd0b95fccadea3e4d25fa235ca7dc5c48eddf80c9c282604051610658919061205b565b60405180910390a1505050565b6000600260009054906101000a900473ffffffffffffffffffffffffffffffffffffffff1673ffffffffffffffffffffffffffffffffffffffff1631905090565b606060006106b46000611911565b67ffffffffffffffff8111156106f3577f4e487b7100000000000000000000000000000000000000000000000000000000600052604160045260246000fd5b60405190808252806020026020018201604052801561072c57816020015b610719611935565b8152602001906001900390816107115790505b50905060005b61073c6000611911565b81101561088c57600460008281526020019081526020016000206040518060e0016040529081600082015481526020016001820160009054906101000a900473ffffffffffffffffffffffffffffffffffffffff1673ffffffffffffffffffffffffffffffffffffffff1673ffffffffffffffffffffffffffffffffffffffff168152602001600282015481526020016003820160009054906101000a900460ff161515151581526020016003820160019054906101000a900460ff161515151581526020016003820160029054906101000a900460ff161515151581526020016003820160039054906101000a900460ff161515151581525050828281518110610870577f4e487b7100000000000000000000000000000000000000000000000000000000600052603260045260246000fd5b60200260200101819052508061088590612135565b9050610732565b508091505090565b60006108a06000611911565b905090565b600160009054906101000a900473ffffffffffffffffffffffffffffffffffffffff1673ffffffffffffffffffffffffffffffffffffffff163373ffffffffffffffffffffffffffffffffffffffff16146108ff57600080fd5b6109096000611911565b81111561094b576040517f08c379a000000000000000000000000000000000000000000000000000000000815260040161094290611efb565b60405180910390fd5b6000600460008381526020019081526020016000206040518060e0016040529081600082015481526020016001820160009054906101000a900473ffffffffffffffffffffffffffffffffffffffff1673ffffffffffffffffffffffffffffffffffffffff1673ffffffffffffffffffffffffffffffffffffffff168152602001600282015481526020016003820160009054906101000a900460ff161515151581526020016003820160019054906101000a900460ff161515151581526020016003820160029054906101000a900460ff161515151581526020016003820160039054906101000a900460ff16151515158152505090506000816040015190508160a00151610a90576040517f08c379a0000000000000000000000000000000000000000000000000000000008152600401610a8790611f7b565b60405180910390fd5b8160600151610ad4576040517f08c379a0000000000000000000000000000000000000000000000000000000008152600401610acb90611e9b565b60405180910390fd5b8160c0015115610b19576040517f08c379a0000000000000000000000000000000000000000000000000000000008152600401610b1090611f5b565b60405180910390fd5b816080015115610b5e576040517f08c379a0000000000000000000000000000000000000000000000000000000008152600401610b5590611f9b565b60405180910390fd5b803414610ba0576040517f08c379a0000000000000000000000000000000000000000000000000000000008152600401610b9790611e3b565b60405180910390fd5b816020015173ffffffffffffffffffffffffffffffffffffffff166108fc349081150290604051600060405180830381858888f19350505050158015610bea573d6000803e3d6000fd5b5060018260c001901515908115158152505081600460008581526020019081526020016000206000820151816000015560208201518160010160006101000a81548173ffffffffffffffffffffffffffffffffffffffff021916908373ffffffffffffffffffffffffffffffffffffffff1602179055506040820151816002015560608201518160030160006101000a81548160ff02191690831515021790555060808201518160030160016101000a81548160ff02191690831515021790555060a08201518160030160026101000a81548160ff02191690831515021790555060c08201518160030160036101000a81548160ff0219169083151502179055509050507f1fe6f7888f33539c925f66333ede6cb530dd793ea2029137d0af833955556bab82604051610d1d919061205b565b60405180910390a1505050565b60003390506000349050600360008373ffffffffffffffffffffffffffffffffffffffff1673ffffffffffffffffffffffffffffffffffffffff16815260200190815260200160002060009054906101000a900460ff16610dde576001600360008473ffffffffffffffffffffffffffffffffffffffff1673ffffffffffffffffffffffffffffffffffffffff16815260200190815260200160002060006101000a81548160ff0219169083151502179055505b60006040518060e00160405280610df56000611911565b81526020018473ffffffffffffffffffffffffffffffffffffffff1681526020018381526020016000151581526020016000151581526020016000151581526020016000151581525090508060046000610e4f6000611911565b81526020019081526020016000206000820151816000015560208201518160010160006101000a81548173ffffffffffffffffffffffffffffffffffffffff021916908373ffffffffffffffffffffffffffffffffffffffff1602179055506040820151816002015560608201518160030160006101000a81548160ff02191690831515021790555060808201518160030160016101000a81548160ff02191690831515021790555060a08201518160030160026101000a81548160ff02191690831515021790555060c08201518160030160036101000a81548160ff021916908315150217905550905050610f45600061191f565b7f050577d37709698bbd44308e9c832b1112ff235e22fded3f016c091a5747e3c881604051610f74919061205b565b60405180910390a1505050565b600360003373ffffffffffffffffffffffffffffffffffffffff1673ffffffffffffffffffffffffffffffffffffffff16815260200190815260200160002060009054906101000a900460ff16610fd757600080fd5b610fe16000611911565b811115611023576040517f08c379a000000000000000000000000000000000000000000000000000000000815260040161101a90611efb565b60405180910390fd5b6000600460008381526020019081526020016000206040518060e0016040529081600082015481526020016001820160009054906101000a900473ffffffffffffffffffffffffffffffffffffffff1673ffffffffffffffffffffffffffffffffffffffff1673ffffffffffffffffffffffffffffffffffffffff168152602001600282015481526020016003820160009054906101000a900460ff161515151581526020016003820160019054906101000a900460ff161515151581526020016003820160029054906101000a900460ff161515151581526020016003820160039054906101000a900460ff16151515158152505090506000816040015190503373ffffffffffffffffffffffffffffffffffffffff16826020015173ffffffffffffffffffffffffffffffffffffffff1614611196576040517f08c379a000000000000000000000000000000000000000000000000000000000815260040161118d90611ebb565b60405180910390fd5b8160600151156111db576040517f08c379a00000000000000000000000000000000000000000000000000000000081526004016111d290611e7b565b60405180910390fd5b816080015115611220576040517f08c379a000000000000000000000000000000000000000000000000000000000815260040161121790611e5b565b60405180910390fd5b8160a0015115611265576040517f08c379a000000000000000000000000000000000000000000000000000000000815260040161125c90611f1b565b60405180910390fd5b8160c00151156112aa576040517f08c379a00000000000000000000000000000000000000000000000000000000081526004016112a190611fbb565b60405180910390fd5b80600260009054906101000a900473ffffffffffffffffffffffffffffffffffffffff1673ffffffffffffffffffffffffffffffffffffffff16311015611326576040517f08c379a000000000000000000000000000000000000000000000000000000000815260040161131d90611fdb565b60405180910390fd5b600160009054906101000a900473ffffffffffffffffffffffffffffffffffffffff1673ffffffffffffffffffffffffffffffffffffffff166108fc829081150290604051600060405180830381858888f1935050505015801561138e573d6000803e3d6000fd5b50600182606001901515908115158152505081600460008581526020019081526020016000206000820151816000015560208201518160010160006101000a81548173ffffffffffffffffffffffffffffffffffffffff021916908373ffffffffffffffffffffffffffffffffffffffff1602179055506040820151816002015560608201518160030160006101000a81548160ff02191690831515021790555060808201518160030160016101000a81548160ff02191690831515021790555060a08201518160030160026101000a81548160ff02191690831515021790555060c08201518160030160036101000a81548160ff0219169083151502179055509050507ff5ed69075992d490a61c8f7a92c74f7689a689c9e7641d40c444e105efe1a11a826040516114c1919061205b565b60405180910390a1505050565b6000600160009054906101000a900473ffffffffffffffffffffffffffffffffffffffff16905090565b600360003373ffffffffffffffffffffffffffffffffffffffff1673ffffffffffffffffffffffffffffffffffffffff16815260200190815260200160002060009054906101000a900460ff1661154e57600080fd5b6115586000611911565b81111561159a576040517f08c379a000000000000000000000000000000000000000000000000000000000815260040161159190611efb565b60405180910390fd5b6000600460008381526020019081526020016000206040518060e0016040529081600082015481526020016001820160009054906101000a900473ffffffffffffffffffffffffffffffffffffffff1673ffffffffffffffffffffffffffffffffffffffff1673ffffffffffffffffffffffffffffffffffffffff168152602001600282015481526020016003820160009054906101000a900460ff161515151581526020016003820160019054906101000a900460ff161515151581526020016003820160029054906101000a900460ff161515151581526020016003820160039054906101000a900460ff16151515158152505090503373ffffffffffffffffffffffffffffffffffffffff16816020015173ffffffffffffffffffffffffffffffffffffffff1614611704576040517f08c379a00000000000000000000000000000000000000000000000000000000081526004016116fb90611ebb565b60405180910390fd5b806080015115611749576040517f08c379a000000000000000000000000000000000000000000000000000000000815260040161174090611ffb565b60405180910390fd5b8060a001511561178e576040517f08c379a000000000000000000000000000000000000000000000000000000000815260040161178590611edb565b60405180910390fd5b8060c00151156117d3576040517f08c379a00000000000000000000000000000000000000000000000000000000081526004016117ca90611f5b565b60405180910390fd5b60018160a001901515908115158152505080600460008481526020019081526020016000206000820151816000015560208201518160010160006101000a81548173ffffffffffffffffffffffffffffffffffffffff021916908373ffffffffffffffffffffffffffffffffffffffff1602179055506040820151816002015560608201518160030160006101000a81548160ff02191690831515021790555060808201518160030160016101000a81548160ff02191690831515021790555060a08201518160030160026101000a81548160ff02191690831515021790555060c08201518160030160036101000a81548160ff0219169083151502179055509050507fb1332955519793948cdc73cfdd8e9f646d209c48224a267b8eed857ab6805d2a81604051611905919061205b565b60405180910390a15050565b600081600001549050919050565b6001816000016000828254019250508190555050565b6040518060e0016040528060008152602001600073ffffffffffffffffffffffffffffffffffffffff168152602001600081526020016000151581526020016000151581526020016000151581526020016000151581525090565b60008135905061199f816126ec565b92915050565b6000602082840312156119b757600080fd5b60006119c584828501611990565b91505092915050565b60006119da8383611cc4565b60e08301905092915050565b6119ef816120ed565b82525050565b6119fe816120db565b82525050565b6000611a0f826120a1565b611a1981856120b9565b9350611a2483612091565b8060005b83811015611a55578151611a3c88826119ce565b9750611a47836120ac565b925050600181019050611a28565b5085935050505092915050565b611a6b816120ff565b82525050565b6000611a7e603d836120ca565b9150611a89826121ad565b604082019050919050565b6000611aa16033836120ca565b9150611aac826121fc565b604082019050919050565b6000611ac46027836120ca565b9150611acf8261224b565b604082019050919050565b6000611ae76038836120ca565b9150611af28261229a565b604082019050919050565b6000611b0a6024836120ca565b9150611b15826122e9565b604082019050919050565b6000611b2d6033836120ca565b9150611b3882612338565b604082019050919050565b6000611b506020836120ca565b9150611b5b82612387565b602082019050919050565b6000611b73602b836120ca565b9150611b7e826123b0565b604082019050919050565b6000611b96603a836120ca565b9150611ba1826123ff565b604082019050919050565b6000611bb9602c836120ca565b9150611bc48261244e565b604082019050919050565b6000611bdc6034836120ca565b9150611be78261249d565b604082019050919050565b6000611bff602b836120ca565b9150611c0a826124ec565b604082019050919050565b6000611c226024836120ca565b9150611c2d8261253b565b604082019050919050565b6000611c456030836120ca565b9150611c508261258a565b604082019050919050565b6000611c68605f836120ca565b9150611c73826125d9565b606082019050919050565b6000611c8b6039836120ca565b9150611c968261264e565b604082019050919050565b6000611cae602b836120ca565b9150611cb98261269d565b604082019050919050565b60e082016000820151611cda6000850182611de0565b506020820151611ced60208501826119e6565b506040820151611d006040850182611de0565b506060820151611d136060850182611a62565b506080820151611d266080850182611a62565b5060a0820151611d3960a0850182611a62565b5060c0820151611d4c60c0850182611a62565b50505050565b60e082016000820151611d686000850182611de0565b506020820151611d7b60208501826119e6565b506040820151611d8e6040850182611de0565b506060820151611da16060850182611a62565b506080820151611db46080850182611a62565b5060a0820151611dc760a0850182611a62565b5060c0820151611dda60c0850182611a62565b50505050565b611de98161212b565b82525050565b611df88161212b565b82525050565b6000602082019050611e1360008301846119f5565b92915050565b60006020820190508181036000830152611e338184611a04565b905092915050565b60006020820190508181036000830152611e5481611a71565b9050919050565b60006020820190508181036000830152611e7481611a94565b9050919050565b60006020820190508181036000830152611e9481611ab7565b9050919050565b60006020820190508181036000830152611eb481611ada565b9050919050565b60006020820190508181036000830152611ed481611afd565b9050919050565b60006020820190508181036000830152611ef481611b20565b9050919050565b60006020820190508181036000830152611f1481611b43565b9050919050565b60006020820190508181036000830152611f3481611b66565b9050919050565b60006020820190508181036000830152611f5481611b89565b9050919050565b60006020820190508181036000830152611f7481611bac565b9050919050565b60006020820190508181036000830152611f9481611bcf565b9050919050565b60006020820190508181036000830152611fb481611bf2565b9050919050565b60006020820190508181036000830152611fd481611c15565b9050919050565b60006020820190508181036000830152611ff481611c38565b9050919050565b6000602082019050818103600083015261201481611c5b565b9050919050565b6000602082019050818103600083015261203481611c7e565b9050919050565b6000602082019050818103600083015261205481611ca1565b9050919050565b600060e0820190506120706000830184611d52565b92915050565b600060208201905061208b6000830184611def565b92915050565b6000819050602082019050919050565b600081519050919050565b6000602082019050919050565b600082825260208201905092915050565b600082825260208201905092915050565b60006120e68261210b565b9050919050565b60006120f88261210b565b9050919050565b60008115159050919050565b600073ffffffffffffffffffffffffffffffffffffffff82169050919050565b6000819050919050565b60006121408261212b565b91507fffffffffffffffffffffffffffffffffffffffffffffffffffffffffffffffff8214156121735761217261217e565b5b600182019050919050565b7f4e487b7100000000000000000000000000000000000000000000000000000000600052601160045260246000fd5b7f4552524f523a2054686520616d6f756e7420796f752073656e74206973206e6f60008201527f7420657175616c20746f20746865206f7264657227732070726963652e000000602082015250565b7f4552524f523a2054686973206f7264657220686173206265656e2064656c657460008201527f65642066726f6d207468652073656c6c65722e00000000000000000000000000602082015250565b7f4552524f523a2054686973206f7264657220697320616c726561647920636f6e60008201527f6669726d65642e00000000000000000000000000000000000000000000000000602082015250565b7f4552524f523a2054686973206f7264657220686173206e65766572206265656e60008201527f20636f6e6669726d6564206279207468652062757965722e0000000000000000602082015250565b7f4552524f523a20596f75206e6576657220637265617465642074686973206f7260008201527f6465722e00000000000000000000000000000000000000000000000000000000602082015250565b7f4552524f523a20596f7520616c72656164792061736b6564207468652072656660008201527f756e6420666f722074686973206f726465722e00000000000000000000000000602082015250565b7f4552524f523a2054686973206f7264657220646f65736e27742065786973742e600082015250565b7f4552524f523a20596f752061736b65642074686520726566756e6420666f722060008201527f74686973206f726465722e000000000000000000000000000000000000000000602082015250565b7f4552524f523a2054686973206f726465722068617320616c726561647920626560008201527f656e20636f6e6669726d6564206279207468652062757965722e000000000000602082015250565b7f4552524f523a2054686973206f726465722068617320616c726561647920626560008201527f656e20726566756e6465642e0000000000000000000000000000000000000000602082015250565b7f4552524f523a20546865206275796572206469646e27742061736b206120726560008201527f66756e6420666f722074686973206f726465722e000000000000000000000000602082015250565b7f4552524f523a2054686973206f726465722068617320616c726561647920626560008201527f656e2064656c657465642e000000000000000000000000000000000000000000602082015250565b7f4552524f523a2054686973206f7264657220686173206265656e20726566756e60008201527f6465642e00000000000000000000000000000000000000000000000000000000602082015250565b7f4552524f523a20496e73756666696369656e742066756e647320696e7369646560008201527f20736d61727420636f6e74726163742e00000000000000000000000000000000602082015250565b7f4552524f523a2054686973206f7264657220686173206265656e2064656c657460008201527f65642066726f6d207468652073656c6c65722c20796f752073686f756c64206860208201527f61766520616c726561647920726563656976656420746865206d6f6e65792e00604082015250565b7f4552524f523a20596f75206861766520616c726561647920726566756e64656460008201527f2074686973206f7264657220746f207468652062757965722e00000000000000602082015250565b7f4552524f523a20596f75206861766520616c72656164792064656c657465642060008201527f74686973206f726465722e000000000000000000000000000000000000000000602082015250565b6126f58161212b565b811461270057600080fd5b5056fea2646970667358221220c5fa33ccb4ca61231082a79f0c6c3b202945adbff718f65248cc9b9b7b2ec13464736f6c63430008040033",
  "linkReferences": {},
  "deployedLinkReferences": {}
}